{
	"fundme/fundme.sol": {
		"FundMe": {
			"abi": [
				{
					"inputs": [],
					"stateMutability": "nonpayable",
					"type": "constructor"
				},
				{
					"inputs": [],
					"name": "NotOwner",
					"type": "error"
				},
				{
					"stateMutability": "payable",
					"type": "fallback"
				},
				{
					"inputs": [],
					"name": "MINIMUM_USD",
					"outputs": [
						{
							"internalType": "uint256",
							"name": "",
							"type": "uint256"
						}
					],
					"stateMutability": "view",
					"type": "function"
				},
				{
					"inputs": [
						{
							"internalType": "address",
							"name": "",
							"type": "address"
						}
					],
					"name": "addressAndAmountofFunders",
					"outputs": [
						{
							"internalType": "uint256",
							"name": "",
							"type": "uint256"
						}
					],
					"stateMutability": "view",
					"type": "function"
				},
				{
					"inputs": [],
					"name": "fund",
					"outputs": [],
					"stateMutability": "payable",
					"type": "function"
				},
				{
					"inputs": [
						{
							"internalType": "uint256",
							"name": "",
							"type": "uint256"
						}
					],
					"name": "funderslist",
					"outputs": [
						{
							"internalType": "address",
							"name": "",
							"type": "address"
						}
					],
					"stateMutability": "view",
					"type": "function"
				},
				{
					"inputs": [],
					"name": "i_owner",
					"outputs": [
						{
							"internalType": "address",
							"name": "",
							"type": "address"
						}
					],
					"stateMutability": "view",
					"type": "function"
				},
				{
					"inputs": [],
					"name": "withdraw",
					"outputs": [],
					"stateMutability": "nonpayable",
					"type": "function"
				},
				{
					"stateMutability": "payable",
					"type": "receive"
				}
			],
			"devdoc": {
				"kind": "dev",
				"methods": {},
				"version": 1
			},
			"evm": {
				"assembly": "    /* \"fundme/fundme.sol\":391:2639  contract FundMe {... */\n  mstore(0x40, 0xa0)\n    /* \"fundme/fundme.sol\":890:943  constructor() {... */\n  callvalue\n  dup1\n  iszero\n  tag_1\n  jumpi\n  0x00\n  dup1\n  revert\ntag_1:\n  pop\n    /* \"fundme/fundme.sol\":925:935  msg.sender */\n  caller\n    /* \"fundme/fundme.sol\":915:935  i_owner = msg.sender */\n  0xffffffffffffffffffffffffffffffffffffffff\n  and\n  0x80\n  dup2\n  0xffffffffffffffffffffffffffffffffffffffff\n  and\n  dup2\n  mstore\n  pop\n  pop\n    /* \"fundme/fundme.sol\":391:2639  contract FundMe {... */\n  mload(0x80)\n  codecopy(0x00, dataOffset(sub_0), dataSize(sub_0))\n  0x00\n  assignImmutable(\"0x583f4f71b32721321fd0f20e674c3938142ce9f243e802c16cfc4def7d2dc523\")\n  return(0x00, dataSize(sub_0))\nstop\n\nsub_0: assembly {\n        /* \"fundme/fundme.sol\":391:2639  contract FundMe {... */\n      mstore(0x40, 0x80)\n      jumpi(tag_1, lt(calldatasize, 0x04))\n      shr(0xe0, calldataload(0x00))\n      dup1\n      0x3ccfd60b\n      eq\n      tag_3\n      jumpi\n      dup1\n      0x4e35fbd8\n      eq\n      tag_4\n      jumpi\n      dup1\n      0x6b69a592\n      eq\n      tag_5\n      jumpi\n      dup1\n      0xb60d4288\n      eq\n      tag_6\n      jumpi\n      dup1\n      0xdba6335f\n      eq\n      tag_7\n      jumpi\n      dup1\n      0xe873fee4\n      eq\n      tag_8\n      jumpi\n      jump(tag_2)\n    tag_1:\n      jumpi(tag_2, calldatasize)\n        /* \"fundme/fundme.sol\":2622:2628  fund() */\n      tag_11\n        /* \"fundme/fundme.sol\":2622:2626  fund */\n      tag_12\n        /* \"fundme/fundme.sol\":2622:2628  fund() */\n      jump\t// in\n    tag_11:\n        /* \"fundme/fundme.sol\":391:2639  contract FundMe {... */\n      stop\n    tag_2:\n        /* \"fundme/fundme.sol\":2562:2568  fund() */\n      tag_15\n        /* \"fundme/fundme.sol\":2562:2566  fund */\n      tag_12\n        /* \"fundme/fundme.sol\":2562:2568  fund() */\n      jump\t// in\n    tag_15:\n        /* \"fundme/fundme.sol\":391:2639  contract FundMe {... */\n      stop\n        /* \"fundme/fundme.sol\":1501:2192  function withdraw() public onlyOwner {... */\n    tag_3:\n      callvalue\n      dup1\n      iszero\n      tag_16\n      jumpi\n      0x00\n      dup1\n      revert\n    tag_16:\n      pop\n      tag_17\n      tag_18\n      jump\t// in\n    tag_17:\n      stop\n        /* \"fundme/fundme.sol\":455:515  mapping(address => uint256) public addressAndAmountofFunders */\n    tag_4:\n      callvalue\n      dup1\n      iszero\n      tag_19\n      jumpi\n      0x00\n      dup1\n      revert\n    tag_19:\n      pop\n      tag_20\n      0x04\n      dup1\n      calldatasize\n      sub\n      dup2\n      add\n      swap1\n      tag_21\n      swap2\n      swap1\n      tag_22\n      jump\t// in\n    tag_21:\n      tag_23\n      jump\t// in\n    tag_20:\n      mload(0x40)\n      tag_24\n      swap2\n      swap1\n      tag_25\n      jump\t// in\n    tag_24:\n      mload(0x40)\n      dup1\n      swap2\n      sub\n      swap1\n      return\n        /* \"fundme/fundme.sol\":796:846  uint256 public constant MINIMUM_USD = 5 * 10 ** 18 */\n    tag_5:\n      callvalue\n      dup1\n      iszero\n      tag_26\n      jumpi\n      0x00\n      dup1\n      revert\n    tag_26:\n      pop\n      tag_27\n      tag_28\n      jump\t// in\n    tag_27:\n      mload(0x40)\n      tag_29\n      swap2\n      swap1\n      tag_25\n      jump\t// in\n    tag_29:\n      mload(0x40)\n      dup1\n      swap2\n      sub\n      swap1\n      return\n        /* \"fundme/fundme.sol\":951:1339  function fund() public payable {... */\n    tag_6:\n      tag_30\n      tag_12\n      jump\t// in\n    tag_30:\n      stop\n        /* \"fundme/fundme.sol\":698:732  address public  immutable  i_owner */\n    tag_7:\n      callvalue\n      dup1\n      iszero\n      tag_31\n      jumpi\n      0x00\n      dup1\n      revert\n    tag_31:\n      pop\n      tag_32\n      tag_33\n      jump\t// in\n    tag_32:\n      mload(0x40)\n      tag_34\n      swap2\n      swap1\n      tag_35\n      jump\t// in\n    tag_34:\n      mload(0x40)\n      dup1\n      swap2\n      sub\n      swap1\n      return\n        /* \"fundme/fundme.sol\":578:606  address[] public funderslist */\n    tag_8:\n      callvalue\n      dup1\n      iszero\n      tag_36\n      jumpi\n      0x00\n      dup1\n      revert\n    tag_36:\n      pop\n      tag_37\n      0x04\n      dup1\n      calldatasize\n      sub\n      dup2\n      add\n      swap1\n      tag_38\n      swap2\n      swap1\n      tag_39\n      jump\t// in\n    tag_38:\n      tag_40\n      jump\t// in\n    tag_37:\n      mload(0x40)\n      tag_41\n      swap2\n      swap1\n      tag_35\n      jump\t// in\n    tag_41:\n      mload(0x40)\n      dup1\n      swap2\n      sub\n      swap1\n      return\n        /* \"fundme/fundme.sol\":951:1339  function fund() public payable {... */\n    tag_12:\n        /* \"fundme/fundme.sol\":834:846  5 * 10 ** 18 */\n      0x4563918244f40000\n        /* \"fundme/fundme.sol\":1001:1030  msg.value.getConversionRate() */\n      tag_43\n        /* \"fundme/fundme.sol\":1001:1010  msg.value */\n      callvalue\n        /* \"fundme/fundme.sol\":1001:1028  msg.value.getConversionRate */\n      tag_44\n        /* \"fundme/fundme.sol\":1001:1030  msg.value.getConversionRate() */\n      jump\t// in\n    tag_43:\n        /* \"fundme/fundme.sol\":1001:1045  msg.value.getConversionRate() >= MINIMUM_USD */\n      lt\n      iszero\n        /* \"fundme/fundme.sol\":993:1077  require(msg.value.getConversionRate() >= MINIMUM_USD, \"You need to spend more ETH!\") */\n      tag_45\n      jumpi\n      mload(0x40)\n      0x08c379a000000000000000000000000000000000000000000000000000000000\n      dup2\n      mstore\n      0x04\n      add\n      tag_46\n      swap1\n      tag_47\n      jump\t// in\n    tag_46:\n      mload(0x40)\n      dup1\n      swap2\n      sub\n      swap1\n      revert\n    tag_45:\n        /* \"fundme/fundme.sol\":1241:1250  msg.value */\n      callvalue\n        /* \"fundme/fundme.sol\":1200:1225  addressAndAmountofFunders */\n      0x00\n        /* \"fundme/fundme.sol\":1200:1237  addressAndAmountofFunders[msg.sender] */\n      dup1\n        /* \"fundme/fundme.sol\":1226:1236  msg.sender */\n      caller\n        /* \"fundme/fundme.sol\":1200:1237  addressAndAmountofFunders[msg.sender] */\n      0xffffffffffffffffffffffffffffffffffffffff\n      and\n      0xffffffffffffffffffffffffffffffffffffffff\n      and\n      dup2\n      mstore\n      0x20\n      add\n      swap1\n      dup2\n      mstore\n      0x20\n      add\n      0x00\n      keccak256\n      0x00\n        /* \"fundme/fundme.sol\":1200:1250  addressAndAmountofFunders[msg.sender] += msg.value */\n      dup3\n      dup3\n      sload\n      tag_48\n      swap2\n      swap1\n      tag_49\n      jump\t// in\n    tag_48:\n      swap3\n      pop\n      pop\n      dup2\n      swap1\n      sstore\n      pop\n        /* \"fundme/fundme.sol\":1303:1314  funderslist */\n      0x01\n        /* \"fundme/fundme.sol\":1320:1330  msg.sender */\n      caller\n        /* \"fundme/fundme.sol\":1303:1331  funderslist.push(msg.sender) */\n      swap1\n      dup1\n      0x01\n      dup2\n      sload\n      add\n      dup1\n      dup3\n      sstore\n      dup1\n      swap2\n      pop\n      pop\n      0x01\n      swap1\n      sub\n      swap1\n      0x00\n      mstore\n      keccak256(0x00, 0x20)\n      add\n      0x00\n      swap1\n      swap2\n      swap1\n      swap2\n      swap1\n      swap2\n      0x0100\n      exp\n      dup2\n      sload\n      dup2\n      0xffffffffffffffffffffffffffffffffffffffff\n      mul\n      not\n      and\n      swap1\n      dup4\n      0xffffffffffffffffffffffffffffffffffffffff\n      and\n      mul\n      or\n      swap1\n      sstore\n      pop\n        /* \"fundme/fundme.sol\":951:1339  function fund() public payable {... */\n      jump\t// out\n        /* \"fundme/fundme.sol\":1501:2192  function withdraw() public onlyOwner {... */\n    tag_18:\n        /* \"fundme/fundme.sol\":1447:1454  i_owner */\n      immutable(\"0x583f4f71b32721321fd0f20e674c3938142ce9f243e802c16cfc4def7d2dc523\")\n        /* \"fundme/fundme.sol\":1433:1454  msg.sender != i_owner */\n      0xffffffffffffffffffffffffffffffffffffffff\n      and\n        /* \"fundme/fundme.sol\":1433:1443  msg.sender */\n      caller\n        /* \"fundme/fundme.sol\":1433:1454  msg.sender != i_owner */\n      0xffffffffffffffffffffffffffffffffffffffff\n      and\n      eq\n        /* \"fundme/fundme.sol\":1429:1473  if (msg.sender != i_owner) revert NotOwner() */\n      tag_52\n      jumpi\n        /* \"fundme/fundme.sol\":1463:1473  NotOwner() */\n      mload(0x40)\n      0x30cd747100000000000000000000000000000000000000000000000000000000\n      dup2\n      mstore\n      0x04\n      add\n      mload(0x40)\n      dup1\n      swap2\n      sub\n      swap1\n      revert\n        /* \"fundme/fundme.sol\":1429:1473  if (msg.sender != i_owner) revert NotOwner() */\n    tag_52:\n        /* \"fundme/fundme.sol\":1554:1573  uint256 funderIndex */\n      0x00\n        /* \"fundme/fundme.sol\":1549:1748  for (uint256 funderIndex = 0; funderIndex < funderslist.length; funderIndex++) {... */\n    tag_54:\n        /* \"fundme/fundme.sol\":1593:1604  funderslist */\n      0x01\n        /* \"fundme/fundme.sol\":1593:1611  funderslist.length */\n      dup1\n      sload\n      swap1\n      pop\n        /* \"fundme/fundme.sol\":1579:1590  funderIndex */\n      dup2\n        /* \"fundme/fundme.sol\":1579:1611  funderIndex < funderslist.length */\n      lt\n        /* \"fundme/fundme.sol\":1549:1748  for (uint256 funderIndex = 0; funderIndex < funderslist.length; funderIndex++) {... */\n      iszero\n      tag_55\n      jumpi\n        /* \"fundme/fundme.sol\":1643:1657  address funder */\n      0x00\n        /* \"fundme/fundme.sol\":1660:1671  funderslist */\n      0x01\n        /* \"fundme/fundme.sol\":1672:1683  funderIndex */\n      dup3\n        /* \"fundme/fundme.sol\":1660:1684  funderslist[funderIndex] */\n      dup2\n      sload\n      dup2\n      lt\n      tag_57\n      jumpi\n      tag_58\n      tag_59\n      jump\t// in\n    tag_58:\n    tag_57:\n      swap1\n      0x00\n      mstore\n      keccak256(0x00, 0x20)\n      add\n      0x00\n      swap1\n      sload\n      swap1\n      0x0100\n      exp\n      swap1\n      div\n      0xffffffffffffffffffffffffffffffffffffffff\n      and\n        /* \"fundme/fundme.sol\":1643:1684  address funder = funderslist[funderIndex] */\n      swap1\n      pop\n        /* \"fundme/fundme.sol\":1735:1736  0 */\n      0x00\n        /* \"fundme/fundme.sol\":1699:1724  addressAndAmountofFunders */\n      dup1\n        /* \"fundme/fundme.sol\":1699:1732  addressAndAmountofFunders[funder] */\n      0x00\n        /* \"fundme/fundme.sol\":1725:1731  funder */\n      dup4\n        /* \"fundme/fundme.sol\":1699:1732  addressAndAmountofFunders[funder] */\n      0xffffffffffffffffffffffffffffffffffffffff\n      and\n      0xffffffffffffffffffffffffffffffffffffffff\n      and\n      dup2\n      mstore\n      0x20\n      add\n      swap1\n      dup2\n      mstore\n      0x20\n      add\n      0x00\n      keccak256\n        /* \"fundme/fundme.sol\":1699:1736  addressAndAmountofFunders[funder] = 0 */\n      dup2\n      swap1\n      sstore\n      pop\n        /* \"fundme/fundme.sol\":1628:1748  {... */\n      pop\n        /* \"fundme/fundme.sol\":1613:1626  funderIndex++ */\n      dup1\n      dup1\n      0x01\n      add\n      swap2\n      pop\n      pop\n        /* \"fundme/fundme.sol\":1549:1748  for (uint256 funderIndex = 0; funderIndex < funderslist.length; funderIndex++) {... */\n      jump(tag_54)\n    tag_55:\n      pop\n        /* \"fundme/fundme.sol\":1786:1787  0 */\n      0x00\n        /* \"fundme/fundme.sol\":1772:1788  new address[](0) */\n      0xffffffffffffffff\n      dup2\n      gt\n      iszero\n      tag_61\n      jumpi\n      tag_62\n      tag_63\n      jump\t// in\n    tag_62:\n    tag_61:\n      mload(0x40)\n      swap1\n      dup1\n      dup3\n      mstore\n      dup1\n      0x20\n      mul\n      0x20\n      add\n      dup3\n      add\n      0x40\n      mstore\n      dup1\n      iszero\n      tag_64\n      jumpi\n      dup2\n      0x20\n      add\n      0x20\n      dup3\n      mul\n      dup1\n      calldatasize\n      dup4\n      calldatacopy\n      dup1\n      dup3\n      add\n      swap2\n      pop\n      pop\n      swap1\n      pop\n    tag_64:\n      pop\n        /* \"fundme/fundme.sol\":1758:1769  funderslist */\n      0x01\n        /* \"fundme/fundme.sol\":1758:1788  funderslist = new address[](0) */\n      swap1\n      dup1\n      mload\n      swap1\n      0x20\n      add\n      swap1\n      tag_65\n      swap3\n      swap2\n      swap1\n      tag_66\n      jump\t// in\n    tag_65:\n      pop\n        /* \"fundme/fundme.sol\":2059:2075  bool callSuccess */\n      0x00\n        /* \"fundme/fundme.sol\":2088:2098  msg.sender */\n      caller\n        /* \"fundme/fundme.sol\":2080:2104  payable(msg.sender).call */\n      0xffffffffffffffffffffffffffffffffffffffff\n      and\n        /* \"fundme/fundme.sol\":2112:2133  address(this).balance */\n      selfbalance\n        /* \"fundme/fundme.sol\":2080:2138  payable(msg.sender).call{value: address(this).balance}(\"\") */\n      mload(0x40)\n      tag_67\n      swap1\n      tag_68\n      jump\t// in\n    tag_67:\n      0x00\n      mload(0x40)\n      dup1\n      dup4\n      sub\n      dup2\n      dup6\n      dup8\n      gas\n      call\n      swap3\n      pop\n      pop\n      pop\n      returndatasize\n      dup1\n      0x00\n      dup2\n      eq\n      tag_71\n      jumpi\n      mload(0x40)\n      swap2\n      pop\n      and(add(returndatasize, 0x3f), not(0x1f))\n      dup3\n      add\n      0x40\n      mstore\n      returndatasize\n      dup3\n      mstore\n      returndatasize\n      0x00\n      0x20\n      dup5\n      add\n      returndatacopy\n      jump(tag_70)\n    tag_71:\n      0x60\n      swap2\n      pop\n    tag_70:\n      pop\n        /* \"fundme/fundme.sol\":2058:2138  (bool callSuccess,) = payable(msg.sender).call{value: address(this).balance}(\"\") */\n      pop\n      swap1\n      pop\n        /* \"fundme/fundme.sol\":2157:2168  callSuccess */\n      dup1\n        /* \"fundme/fundme.sol\":2149:2184  require(callSuccess, \"Call failed\") */\n      tag_72\n      jumpi\n      mload(0x40)\n      0x08c379a000000000000000000000000000000000000000000000000000000000\n      dup2\n      mstore\n      0x04\n      add\n      tag_73\n      swap1\n      tag_74\n      jump\t// in\n    tag_73:\n      mload(0x40)\n      dup1\n      swap2\n      sub\n      swap1\n      revert\n    tag_72:\n        /* \"fundme/fundme.sol\":1538:2192  {... */\n      pop\n        /* \"fundme/fundme.sol\":1501:2192  function withdraw() public onlyOwner {... */\n      jump\t// out\n        /* \"fundme/fundme.sol\":455:515  mapping(address => uint256) public addressAndAmountofFunders */\n    tag_23:\n      mstore(0x20, 0x00)\n      dup1\n      0x00\n      mstore\n      keccak256(0x00, 0x40)\n      0x00\n      swap2\n      pop\n      swap1\n      pop\n      sload\n      dup2\n      jump\t// out\n        /* \"fundme/fundme.sol\":796:846  uint256 public constant MINIMUM_USD = 5 * 10 ** 18 */\n    tag_28:\n        /* \"fundme/fundme.sol\":834:846  5 * 10 ** 18 */\n      0x4563918244f40000\n        /* \"fundme/fundme.sol\":796:846  uint256 public constant MINIMUM_USD = 5 * 10 ** 18 */\n      dup2\n      jump\t// out\n        /* \"fundme/fundme.sol\":698:732  address public  immutable  i_owner */\n    tag_33:\n      immutable(\"0x583f4f71b32721321fd0f20e674c3938142ce9f243e802c16cfc4def7d2dc523\")\n      dup2\n      jump\t// out\n        /* \"fundme/fundme.sol\":578:606  address[] public funderslist */\n    tag_40:\n      0x01\n      dup2\n      dup2\n      sload\n      dup2\n      lt\n      tag_75\n      jumpi\n      0x00\n      dup1\n      revert\n    tag_75:\n      swap1\n      0x00\n      mstore\n      keccak256(0x00, 0x20)\n      add\n      0x00\n      swap2\n      pop\n      sload\n      swap1\n      0x0100\n      exp\n      swap1\n      div\n      0xffffffffffffffffffffffffffffffffffffffff\n      and\n      dup2\n      jump\t// out\n        /* \"fundme/PriceConverter.sol\":782:1114  function getConversionRate(... */\n    tag_44:\n        /* \"fundme/PriceConverter.sol\":867:874  uint256 */\n      0x00\n        /* \"fundme/PriceConverter.sol\":887:903  uint256 ethPrice */\n      dup1\n        /* \"fundme/PriceConverter.sol\":906:916  getPrice() */\n      tag_78\n        /* \"fundme/PriceConverter.sol\":906:914  getPrice */\n      tag_79\n        /* \"fundme/PriceConverter.sol\":906:916  getPrice() */\n      jump\t// in\n    tag_78:\n        /* \"fundme/PriceConverter.sol\":887:916  uint256 ethPrice = getPrice() */\n      swap1\n      pop\n        /* \"fundme/PriceConverter.sol\":927:949  uint256 ethAmountInUsd */\n      0x00\n        /* \"fundme/PriceConverter.sol\":977:996  1000000000000000000 */\n      0x0de0b6b3a7640000\n        /* \"fundme/PriceConverter.sol\":964:973  ethAmount */\n      dup5\n        /* \"fundme/PriceConverter.sol\":953:961  ethPrice */\n      dup4\n        /* \"fundme/PriceConverter.sol\":953:973  ethPrice * ethAmount */\n      tag_80\n      swap2\n      swap1\n      tag_81\n      jump\t// in\n    tag_80:\n        /* \"fundme/PriceConverter.sol\":952:996  (ethPrice * ethAmount) / 1000000000000000000 */\n      tag_82\n      swap2\n      swap1\n      tag_83\n      jump\t// in\n    tag_82:\n        /* \"fundme/PriceConverter.sol\":927:996  uint256 ethAmountInUsd = (ethPrice * ethAmount) / 1000000000000000000 */\n      swap1\n      pop\n        /* \"fundme/PriceConverter.sol\":1092:1106  ethAmountInUsd */\n      dup1\n        /* \"fundme/PriceConverter.sol\":1085:1106  return ethAmountInUsd */\n      swap3\n      pop\n      pop\n      pop\n        /* \"fundme/PriceConverter.sol\":782:1114  function getConversionRate(... */\n      swap2\n      swap1\n      pop\n      jump\t// out\n        /* \"fundme/PriceConverter.sol\":277:755  function getPrice() internal view returns (uint256) {... */\n    tag_79:\n        /* \"fundme/PriceConverter.sol\":320:327  uint256 */\n      0x00\n        /* \"fundme/PriceConverter.sol\":447:478  AggregatorV3Interface priceFeed */\n      dup1\n        /* \"fundme/PriceConverter.sol\":517:559  0x694AA1769357215DE4FAC081bf1f309aDC325306 */\n      0x694aa1769357215de4fac081bf1f309adc325306\n        /* \"fundme/PriceConverter.sol\":447:570  AggregatorV3Interface priceFeed = AggregatorV3Interface(... */\n      swap1\n      pop\n        /* \"fundme/PriceConverter.sol\":584:597  int256 answer */\n      0x00\n        /* \"fundme/PriceConverter.sol\":607:616  priceFeed */\n      dup2\n        /* \"fundme/PriceConverter.sol\":607:632  priceFeed.latestRoundData */\n      0xffffffffffffffffffffffffffffffffffffffff\n      and\n      0xfeaf968c\n        /* \"fundme/PriceConverter.sol\":607:634  priceFeed.latestRoundData() */\n      mload(0x40)\n      dup2\n      0xffffffff\n      and\n      0xe0\n      shl\n      dup2\n      mstore\n      0x04\n      add\n      0xa0\n      mload(0x40)\n      dup1\n      dup4\n      sub\n      dup2\n      dup7\n      gas\n      staticcall\n      iszero\n      dup1\n      iszero\n      tag_86\n      jumpi\n      returndatasize\n      0x00\n      dup1\n      returndatacopy\n      revert(0x00, returndatasize)\n    tag_86:\n      pop\n      pop\n      pop\n      pop\n      mload(0x40)\n      returndatasize\n      not(0x1f)\n      0x1f\n      dup3\n      add\n      and\n      dup3\n      add\n      dup1\n      0x40\n      mstore\n      pop\n      dup2\n      add\n      swap1\n      tag_87\n      swap2\n      swap1\n      tag_88\n      jump\t// in\n    tag_87:\n        /* \"fundme/PriceConverter.sol\":581:634  (, int256 answer, , , ) = priceFeed.latestRoundData() */\n      pop\n      pop\n      pop\n      swap2\n      pop\n      pop\n        /* \"fundme/PriceConverter.sol\":735:746  10000000000 */\n      0x02540be400\n        /* \"fundme/PriceConverter.sol\":726:732  answer */\n      dup2\n        /* \"fundme/PriceConverter.sol\":726:746  answer * 10000000000 */\n      tag_89\n      swap2\n      swap1\n      tag_90\n      jump\t// in\n    tag_89:\n        /* \"fundme/PriceConverter.sol\":711:747  return uint256(answer * 10000000000) */\n      swap3\n      pop\n      pop\n      pop\n        /* \"fundme/PriceConverter.sol\":277:755  function getPrice() internal view returns (uint256) {... */\n      swap1\n      jump\t// out\n    tag_66:\n      dup3\n      dup1\n      sload\n      dup3\n      dup3\n      sstore\n      swap1\n      0x00\n      mstore\n      keccak256(0x00, 0x20)\n      swap1\n      dup2\n      add\n      swap3\n      dup3\n      iszero\n      tag_91\n      jumpi\n      swap2\n      0x20\n      mul\n      dup3\n      add\n    tag_92:\n      dup3\n      dup2\n      gt\n      iszero\n      tag_93\n      jumpi\n      dup3\n      mload\n      dup3\n      exp(0x0100, 0x00)\n      dup2\n      sload\n      dup2\n      0xffffffffffffffffffffffffffffffffffffffff\n      mul\n      not\n      and\n      swap1\n      dup4\n      0xffffffffffffffffffffffffffffffffffffffff\n      and\n      mul\n      or\n      swap1\n      sstore\n      pop\n      swap2\n      0x20\n      add\n      swap2\n      swap1\n      0x01\n      add\n      swap1\n      jump(tag_92)\n    tag_93:\n    tag_91:\n      pop\n      swap1\n      pop\n      tag_94\n      swap2\n      swap1\n      tag_95\n      jump\t// in\n    tag_94:\n      pop\n      swap1\n      jump\t// out\n    tag_95:\n    tag_96:\n      dup1\n      dup3\n      gt\n      iszero\n      tag_97\n      jumpi\n      0x00\n      dup2\n      0x00\n      swap1\n      sstore\n      pop\n      0x01\n      add\n      jump(tag_96)\n    tag_97:\n      pop\n      swap1\n      jump\t// out\n        /* \"#utility.yul\":88:205   */\n    tag_99:\n        /* \"#utility.yul\":197:198   */\n      0x00\n        /* \"#utility.yul\":194:195   */\n      dup1\n        /* \"#utility.yul\":187:199   */\n      revert\n        /* \"#utility.yul\":334:460   */\n    tag_101:\n        /* \"#utility.yul\":371:378   */\n      0x00\n        /* \"#utility.yul\":411:453   */\n      0xffffffffffffffffffffffffffffffffffffffff\n        /* \"#utility.yul\":404:409   */\n      dup3\n        /* \"#utility.yul\":400:454   */\n      and\n        /* \"#utility.yul\":389:454   */\n      swap1\n      pop\n        /* \"#utility.yul\":334:460   */\n      swap2\n      swap1\n      pop\n      jump\t// out\n        /* \"#utility.yul\":466:562   */\n    tag_102:\n        /* \"#utility.yul\":503:510   */\n      0x00\n        /* \"#utility.yul\":532:556   */\n      tag_133\n        /* \"#utility.yul\":550:555   */\n      dup3\n        /* \"#utility.yul\":532:556   */\n      tag_101\n      jump\t// in\n    tag_133:\n        /* \"#utility.yul\":521:556   */\n      swap1\n      pop\n        /* \"#utility.yul\":466:562   */\n      swap2\n      swap1\n      pop\n      jump\t// out\n        /* \"#utility.yul\":568:690   */\n    tag_103:\n        /* \"#utility.yul\":641:665   */\n      tag_135\n        /* \"#utility.yul\":659:664   */\n      dup2\n        /* \"#utility.yul\":641:665   */\n      tag_102\n      jump\t// in\n    tag_135:\n        /* \"#utility.yul\":634:639   */\n      dup2\n        /* \"#utility.yul\":631:666   */\n      eq\n        /* \"#utility.yul\":621:684   */\n      tag_136\n      jumpi\n        /* \"#utility.yul\":680:681   */\n      0x00\n        /* \"#utility.yul\":677:678   */\n      dup1\n        /* \"#utility.yul\":670:682   */\n      revert\n        /* \"#utility.yul\":621:684   */\n    tag_136:\n        /* \"#utility.yul\":568:690   */\n      pop\n      jump\t// out\n        /* \"#utility.yul\":696:835   */\n    tag_104:\n        /* \"#utility.yul\":742:747   */\n      0x00\n        /* \"#utility.yul\":780:786   */\n      dup2\n        /* \"#utility.yul\":767:787   */\n      calldataload\n        /* \"#utility.yul\":758:787   */\n      swap1\n      pop\n        /* \"#utility.yul\":796:829   */\n      tag_138\n        /* \"#utility.yul\":823:828   */\n      dup2\n        /* \"#utility.yul\":796:829   */\n      tag_103\n      jump\t// in\n    tag_138:\n        /* \"#utility.yul\":696:835   */\n      swap3\n      swap2\n      pop\n      pop\n      jump\t// out\n        /* \"#utility.yul\":841:1170   */\n    tag_22:\n        /* \"#utility.yul\":900:906   */\n      0x00\n        /* \"#utility.yul\":949:951   */\n      0x20\n        /* \"#utility.yul\":937:946   */\n      dup3\n        /* \"#utility.yul\":928:935   */\n      dup5\n        /* \"#utility.yul\":924:947   */\n      sub\n        /* \"#utility.yul\":920:952   */\n      slt\n        /* \"#utility.yul\":917:1036   */\n      iszero\n      tag_140\n      jumpi\n        /* \"#utility.yul\":955:1034   */\n      tag_141\n      tag_99\n      jump\t// in\n    tag_141:\n        /* \"#utility.yul\":917:1036   */\n    tag_140:\n        /* \"#utility.yul\":1075:1076   */\n      0x00\n        /* \"#utility.yul\":1100:1153   */\n      tag_142\n        /* \"#utility.yul\":1145:1152   */\n      dup5\n        /* \"#utility.yul\":1136:1142   */\n      dup3\n        /* \"#utility.yul\":1125:1134   */\n      dup6\n        /* \"#utility.yul\":1121:1143   */\n      add\n        /* \"#utility.yul\":1100:1153   */\n      tag_104\n      jump\t// in\n    tag_142:\n        /* \"#utility.yul\":1090:1153   */\n      swap2\n      pop\n        /* \"#utility.yul\":1046:1163   */\n      pop\n        /* \"#utility.yul\":841:1170   */\n      swap3\n      swap2\n      pop\n      pop\n      jump\t// out\n        /* \"#utility.yul\":1176:1253   */\n    tag_105:\n        /* \"#utility.yul\":1213:1220   */\n      0x00\n        /* \"#utility.yul\":1242:1247   */\n      dup2\n        /* \"#utility.yul\":1231:1247   */\n      swap1\n      pop\n        /* \"#utility.yul\":1176:1253   */\n      swap2\n      swap1\n      pop\n      jump\t// out\n        /* \"#utility.yul\":1259:1377   */\n    tag_106:\n        /* \"#utility.yul\":1346:1370   */\n      tag_145\n        /* \"#utility.yul\":1364:1369   */\n      dup2\n        /* \"#utility.yul\":1346:1370   */\n      tag_105\n      jump\t// in\n    tag_145:\n        /* \"#utility.yul\":1341:1344   */\n      dup3\n        /* \"#utility.yul\":1334:1371   */\n      mstore\n        /* \"#utility.yul\":1259:1377   */\n      pop\n      pop\n      jump\t// out\n        /* \"#utility.yul\":1383:1605   */\n    tag_25:\n        /* \"#utility.yul\":1476:1480   */\n      0x00\n        /* \"#utility.yul\":1514:1516   */\n      0x20\n        /* \"#utility.yul\":1503:1512   */\n      dup3\n        /* \"#utility.yul\":1499:1517   */\n      add\n        /* \"#utility.yul\":1491:1517   */\n      swap1\n      pop\n        /* \"#utility.yul\":1527:1598   */\n      tag_147\n        /* \"#utility.yul\":1595:1596   */\n      0x00\n        /* \"#utility.yul\":1584:1593   */\n      dup4\n        /* \"#utility.yul\":1580:1597   */\n      add\n        /* \"#utility.yul\":1571:1577   */\n      dup5\n        /* \"#utility.yul\":1527:1598   */\n      tag_106\n      jump\t// in\n    tag_147:\n        /* \"#utility.yul\":1383:1605   */\n      swap3\n      swap2\n      pop\n      pop\n      jump\t// out\n        /* \"#utility.yul\":1611:1729   */\n    tag_107:\n        /* \"#utility.yul\":1698:1722   */\n      tag_149\n        /* \"#utility.yul\":1716:1721   */\n      dup2\n        /* \"#utility.yul\":1698:1722   */\n      tag_102\n      jump\t// in\n    tag_149:\n        /* \"#utility.yul\":1693:1696   */\n      dup3\n        /* \"#utility.yul\":1686:1723   */\n      mstore\n        /* \"#utility.yul\":1611:1729   */\n      pop\n      pop\n      jump\t// out\n        /* \"#utility.yul\":1735:1957   */\n    tag_35:\n        /* \"#utility.yul\":1828:1832   */\n      0x00\n        /* \"#utility.yul\":1866:1868   */\n      0x20\n        /* \"#utility.yul\":1855:1864   */\n      dup3\n        /* \"#utility.yul\":1851:1869   */\n      add\n        /* \"#utility.yul\":1843:1869   */\n      swap1\n      pop\n        /* \"#utility.yul\":1879:1950   */\n      tag_151\n        /* \"#utility.yul\":1947:1948   */\n      0x00\n        /* \"#utility.yul\":1936:1945   */\n      dup4\n        /* \"#utility.yul\":1932:1949   */\n      add\n        /* \"#utility.yul\":1923:1929   */\n      dup5\n        /* \"#utility.yul\":1879:1950   */\n      tag_107\n      jump\t// in\n    tag_151:\n        /* \"#utility.yul\":1735:1957   */\n      swap3\n      swap2\n      pop\n      pop\n      jump\t// out\n        /* \"#utility.yul\":1963:2085   */\n    tag_108:\n        /* \"#utility.yul\":2036:2060   */\n      tag_153\n        /* \"#utility.yul\":2054:2059   */\n      dup2\n        /* \"#utility.yul\":2036:2060   */\n      tag_105\n      jump\t// in\n    tag_153:\n        /* \"#utility.yul\":2029:2034   */\n      dup2\n        /* \"#utility.yul\":2026:2061   */\n      eq\n        /* \"#utility.yul\":2016:2079   */\n      tag_154\n      jumpi\n        /* \"#utility.yul\":2075:2076   */\n      0x00\n        /* \"#utility.yul\":2072:2073   */\n      dup1\n        /* \"#utility.yul\":2065:2077   */\n      revert\n        /* \"#utility.yul\":2016:2079   */\n    tag_154:\n        /* \"#utility.yul\":1963:2085   */\n      pop\n      jump\t// out\n        /* \"#utility.yul\":2091:2230   */\n    tag_109:\n        /* \"#utility.yul\":2137:2142   */\n      0x00\n        /* \"#utility.yul\":2175:2181   */\n      dup2\n        /* \"#utility.yul\":2162:2182   */\n      calldataload\n        /* \"#utility.yul\":2153:2182   */\n      swap1\n      pop\n        /* \"#utility.yul\":2191:2224   */\n      tag_156\n        /* \"#utility.yul\":2218:2223   */\n      dup2\n        /* \"#utility.yul\":2191:2224   */\n      tag_108\n      jump\t// in\n    tag_156:\n        /* \"#utility.yul\":2091:2230   */\n      swap3\n      swap2\n      pop\n      pop\n      jump\t// out\n        /* \"#utility.yul\":2236:2565   */\n    tag_39:\n        /* \"#utility.yul\":2295:2301   */\n      0x00\n        /* \"#utility.yul\":2344:2346   */\n      0x20\n        /* \"#utility.yul\":2332:2341   */\n      dup3\n        /* \"#utility.yul\":2323:2330   */\n      dup5\n        /* \"#utility.yul\":2319:2342   */\n      sub\n        /* \"#utility.yul\":2315:2347   */\n      slt\n        /* \"#utility.yul\":2312:2431   */\n      iszero\n      tag_158\n      jumpi\n        /* \"#utility.yul\":2350:2429   */\n      tag_159\n      tag_99\n      jump\t// in\n    tag_159:\n        /* \"#utility.yul\":2312:2431   */\n    tag_158:\n        /* \"#utility.yul\":2470:2471   */\n      0x00\n        /* \"#utility.yul\":2495:2548   */\n      tag_160\n        /* \"#utility.yul\":2540:2547   */\n      dup5\n        /* \"#utility.yul\":2531:2537   */\n      dup3\n        /* \"#utility.yul\":2520:2529   */\n      dup6\n        /* \"#utility.yul\":2516:2538   */\n      add\n        /* \"#utility.yul\":2495:2548   */\n      tag_109\n      jump\t// in\n    tag_160:\n        /* \"#utility.yul\":2485:2548   */\n      swap2\n      pop\n        /* \"#utility.yul\":2441:2558   */\n      pop\n        /* \"#utility.yul\":2236:2565   */\n      swap3\n      swap2\n      pop\n      pop\n      jump\t// out\n        /* \"#utility.yul\":2571:2740   */\n    tag_110:\n        /* \"#utility.yul\":2655:2666   */\n      0x00\n        /* \"#utility.yul\":2689:2695   */\n      dup3\n        /* \"#utility.yul\":2684:2687   */\n      dup3\n        /* \"#utility.yul\":2677:2696   */\n      mstore\n        /* \"#utility.yul\":2729:2733   */\n      0x20\n        /* \"#utility.yul\":2724:2727   */\n      dup3\n        /* \"#utility.yul\":2720:2734   */\n      add\n        /* \"#utility.yul\":2705:2734   */\n      swap1\n      pop\n        /* \"#utility.yul\":2571:2740   */\n      swap3\n      swap2\n      pop\n      pop\n      jump\t// out\n        /* \"#utility.yul\":2746:2923   */\n    tag_111:\n        /* \"#utility.yul\":2886:2915   */\n      0x596f75206e65656420746f207370656e64206d6f726520455448210000000000\n        /* \"#utility.yul\":2882:2883   */\n      0x00\n        /* \"#utility.yul\":2874:2880   */\n      dup3\n        /* \"#utility.yul\":2870:2884   */\n      add\n        /* \"#utility.yul\":2863:2916   */\n      mstore\n        /* \"#utility.yul\":2746:2923   */\n      pop\n      jump\t// out\n        /* \"#utility.yul\":2929:3295   */\n    tag_112:\n        /* \"#utility.yul\":3071:3074   */\n      0x00\n        /* \"#utility.yul\":3092:3159   */\n      tag_164\n        /* \"#utility.yul\":3156:3158   */\n      0x1b\n        /* \"#utility.yul\":3151:3154   */\n      dup4\n        /* \"#utility.yul\":3092:3159   */\n      tag_110\n      jump\t// in\n    tag_164:\n        /* \"#utility.yul\":3085:3159   */\n      swap2\n      pop\n        /* \"#utility.yul\":3168:3261   */\n      tag_165\n        /* \"#utility.yul\":3257:3260   */\n      dup3\n        /* \"#utility.yul\":3168:3261   */\n      tag_111\n      jump\t// in\n    tag_165:\n        /* \"#utility.yul\":3286:3288   */\n      0x20\n        /* \"#utility.yul\":3281:3284   */\n      dup3\n        /* \"#utility.yul\":3277:3289   */\n      add\n        /* \"#utility.yul\":3270:3289   */\n      swap1\n      pop\n        /* \"#utility.yul\":2929:3295   */\n      swap2\n      swap1\n      pop\n      jump\t// out\n        /* \"#utility.yul\":3301:3720   */\n    tag_47:\n        /* \"#utility.yul\":3467:3471   */\n      0x00\n        /* \"#utility.yul\":3505:3507   */\n      0x20\n        /* \"#utility.yul\":3494:3503   */\n      dup3\n        /* \"#utility.yul\":3490:3508   */\n      add\n        /* \"#utility.yul\":3482:3508   */\n      swap1\n      pop\n        /* \"#utility.yul\":3554:3563   */\n      dup2\n        /* \"#utility.yul\":3548:3552   */\n      dup2\n        /* \"#utility.yul\":3544:3564   */\n      sub\n        /* \"#utility.yul\":3540:3541   */\n      0x00\n        /* \"#utility.yul\":3529:3538   */\n      dup4\n        /* \"#utility.yul\":3525:3542   */\n      add\n        /* \"#utility.yul\":3518:3565   */\n      mstore\n        /* \"#utility.yul\":3582:3713   */\n      tag_167\n        /* \"#utility.yul\":3708:3712   */\n      dup2\n        /* \"#utility.yul\":3582:3713   */\n      tag_112\n      jump\t// in\n    tag_167:\n        /* \"#utility.yul\":3574:3713   */\n      swap1\n      pop\n        /* \"#utility.yul\":3301:3720   */\n      swap2\n      swap1\n      pop\n      jump\t// out\n        /* \"#utility.yul\":3726:3906   */\n    tag_113:\n        /* \"#utility.yul\":3774:3851   */\n      0x4e487b7100000000000000000000000000000000000000000000000000000000\n        /* \"#utility.yul\":3771:3772   */\n      0x00\n        /* \"#utility.yul\":3764:3852   */\n      mstore\n        /* \"#utility.yul\":3871:3875   */\n      0x11\n        /* \"#utility.yul\":3868:3869   */\n      0x04\n        /* \"#utility.yul\":3861:3876   */\n      mstore\n        /* \"#utility.yul\":3895:3899   */\n      0x24\n        /* \"#utility.yul\":3892:3893   */\n      0x00\n        /* \"#utility.yul\":3885:3900   */\n      revert\n        /* \"#utility.yul\":3912:4103   */\n    tag_49:\n        /* \"#utility.yul\":3952:3955   */\n      0x00\n        /* \"#utility.yul\":3971:3991   */\n      tag_170\n        /* \"#utility.yul\":3989:3990   */\n      dup3\n        /* \"#utility.yul\":3971:3991   */\n      tag_105\n      jump\t// in\n    tag_170:\n        /* \"#utility.yul\":3966:3991   */\n      swap2\n      pop\n        /* \"#utility.yul\":4005:4025   */\n      tag_171\n        /* \"#utility.yul\":4023:4024   */\n      dup4\n        /* \"#utility.yul\":4005:4025   */\n      tag_105\n      jump\t// in\n    tag_171:\n        /* \"#utility.yul\":4000:4025   */\n      swap3\n      pop\n        /* \"#utility.yul\":4048:4049   */\n      dup3\n        /* \"#utility.yul\":4045:4046   */\n      dup3\n        /* \"#utility.yul\":4041:4050   */\n      add\n        /* \"#utility.yul\":4034:4050   */\n      swap1\n      pop\n        /* \"#utility.yul\":4069:4072   */\n      dup1\n        /* \"#utility.yul\":4066:4067   */\n      dup3\n        /* \"#utility.yul\":4063:4073   */\n      gt\n        /* \"#utility.yul\":4060:4096   */\n      iszero\n      tag_172\n      jumpi\n        /* \"#utility.yul\":4076:4094   */\n      tag_173\n      tag_113\n      jump\t// in\n    tag_173:\n        /* \"#utility.yul\":4060:4096   */\n    tag_172:\n        /* \"#utility.yul\":3912:4103   */\n      swap3\n      swap2\n      pop\n      pop\n      jump\t// out\n        /* \"#utility.yul\":4109:4289   */\n    tag_59:\n        /* \"#utility.yul\":4157:4234   */\n      0x4e487b7100000000000000000000000000000000000000000000000000000000\n        /* \"#utility.yul\":4154:4155   */\n      0x00\n        /* \"#utility.yul\":4147:4235   */\n      mstore\n        /* \"#utility.yul\":4254:4258   */\n      0x32\n        /* \"#utility.yul\":4251:4252   */\n      0x04\n        /* \"#utility.yul\":4244:4259   */\n      mstore\n        /* \"#utility.yul\":4278:4282   */\n      0x24\n        /* \"#utility.yul\":4275:4276   */\n      0x00\n        /* \"#utility.yul\":4268:4283   */\n      revert\n        /* \"#utility.yul\":4295:4475   */\n    tag_63:\n        /* \"#utility.yul\":4343:4420   */\n      0x4e487b7100000000000000000000000000000000000000000000000000000000\n        /* \"#utility.yul\":4340:4341   */\n      0x00\n        /* \"#utility.yul\":4333:4421   */\n      mstore\n        /* \"#utility.yul\":4440:4444   */\n      0x41\n        /* \"#utility.yul\":4437:4438   */\n      0x04\n        /* \"#utility.yul\":4430:4445   */\n      mstore\n        /* \"#utility.yul\":4464:4468   */\n      0x24\n        /* \"#utility.yul\":4461:4462   */\n      0x00\n        /* \"#utility.yul\":4454:4469   */\n      revert\n        /* \"#utility.yul\":4481:4628   */\n    tag_114:\n        /* \"#utility.yul\":4582:4593   */\n      0x00\n        /* \"#utility.yul\":4619:4622   */\n      dup2\n        /* \"#utility.yul\":4604:4622   */\n      swap1\n      pop\n        /* \"#utility.yul\":4481:4628   */\n      swap3\n      swap2\n      pop\n      pop\n      jump\t// out\n        /* \"#utility.yul\":4634:4748   */\n    tag_115:\n      pop\n      jump\t// out\n        /* \"#utility.yul\":4754:5152   */\n    tag_116:\n        /* \"#utility.yul\":4913:4916   */\n      0x00\n        /* \"#utility.yul\":4934:5017   */\n      tag_179\n        /* \"#utility.yul\":5015:5016   */\n      0x00\n        /* \"#utility.yul\":5010:5013   */\n      dup4\n        /* \"#utility.yul\":4934:5017   */\n      tag_114\n      jump\t// in\n    tag_179:\n        /* \"#utility.yul\":4927:5017   */\n      swap2\n      pop\n        /* \"#utility.yul\":5026:5119   */\n      tag_180\n        /* \"#utility.yul\":5115:5118   */\n      dup3\n        /* \"#utility.yul\":5026:5119   */\n      tag_115\n      jump\t// in\n    tag_180:\n        /* \"#utility.yul\":5144:5145   */\n      0x00\n        /* \"#utility.yul\":5139:5142   */\n      dup3\n        /* \"#utility.yul\":5135:5146   */\n      add\n        /* \"#utility.yul\":5128:5146   */\n      swap1\n      pop\n        /* \"#utility.yul\":4754:5152   */\n      swap2\n      swap1\n      pop\n      jump\t// out\n        /* \"#utility.yul\":5158:5537   */\n    tag_68:\n        /* \"#utility.yul\":5342:5345   */\n      0x00\n        /* \"#utility.yul\":5364:5511   */\n      tag_182\n        /* \"#utility.yul\":5507:5510   */\n      dup3\n        /* \"#utility.yul\":5364:5511   */\n      tag_116\n      jump\t// in\n    tag_182:\n        /* \"#utility.yul\":5357:5511   */\n      swap2\n      pop\n        /* \"#utility.yul\":5528:5531   */\n      dup2\n        /* \"#utility.yul\":5521:5531   */\n      swap1\n      pop\n        /* \"#utility.yul\":5158:5537   */\n      swap2\n      swap1\n      pop\n      jump\t// out\n        /* \"#utility.yul\":5543:5704   */\n    tag_117:\n        /* \"#utility.yul\":5683:5696   */\n      0x43616c6c206661696c6564000000000000000000000000000000000000000000\n        /* \"#utility.yul\":5679:5680   */\n      0x00\n        /* \"#utility.yul\":5671:5677   */\n      dup3\n        /* \"#utility.yul\":5667:5681   */\n      add\n        /* \"#utility.yul\":5660:5697   */\n      mstore\n        /* \"#utility.yul\":5543:5704   */\n      pop\n      jump\t// out\n        /* \"#utility.yul\":5710:6076   */\n    tag_118:\n        /* \"#utility.yul\":5852:5855   */\n      0x00\n        /* \"#utility.yul\":5873:5940   */\n      tag_185\n        /* \"#utility.yul\":5937:5939   */\n      0x0b\n        /* \"#utility.yul\":5932:5935   */\n      dup4\n        /* \"#utility.yul\":5873:5940   */\n      tag_110\n      jump\t// in\n    tag_185:\n        /* \"#utility.yul\":5866:5940   */\n      swap2\n      pop\n        /* \"#utility.yul\":5949:6042   */\n      tag_186\n        /* \"#utility.yul\":6038:6041   */\n      dup3\n        /* \"#utility.yul\":5949:6042   */\n      tag_117\n      jump\t// in\n    tag_186:\n        /* \"#utility.yul\":6067:6069   */\n      0x20\n        /* \"#utility.yul\":6062:6065   */\n      dup3\n        /* \"#utility.yul\":6058:6070   */\n      add\n        /* \"#utility.yul\":6051:6070   */\n      swap1\n      pop\n        /* \"#utility.yul\":5710:6076   */\n      swap2\n      swap1\n      pop\n      jump\t// out\n        /* \"#utility.yul\":6082:6501   */\n    tag_74:\n        /* \"#utility.yul\":6248:6252   */\n      0x00\n        /* \"#utility.yul\":6286:6288   */\n      0x20\n        /* \"#utility.yul\":6275:6284   */\n      dup3\n        /* \"#utility.yul\":6271:6289   */\n      add\n        /* \"#utility.yul\":6263:6289   */\n      swap1\n      pop\n        /* \"#utility.yul\":6335:6344   */\n      dup2\n        /* \"#utility.yul\":6329:6333   */\n      dup2\n        /* \"#utility.yul\":6325:6345   */\n      sub\n        /* \"#utility.yul\":6321:6322   */\n      0x00\n        /* \"#utility.yul\":6310:6319   */\n      dup4\n        /* \"#utility.yul\":6306:6323   */\n      add\n        /* \"#utility.yul\":6299:6346   */\n      mstore\n        /* \"#utility.yul\":6363:6494   */\n      tag_188\n        /* \"#utility.yul\":6489:6493   */\n      dup2\n        /* \"#utility.yul\":6363:6494   */\n      tag_118\n      jump\t// in\n    tag_188:\n        /* \"#utility.yul\":6355:6494   */\n      swap1\n      pop\n        /* \"#utility.yul\":6082:6501   */\n      swap2\n      swap1\n      pop\n      jump\t// out\n        /* \"#utility.yul\":6507:6917   */\n    tag_81:\n        /* \"#utility.yul\":6547:6554   */\n      0x00\n        /* \"#utility.yul\":6570:6590   */\n      tag_190\n        /* \"#utility.yul\":6588:6589   */\n      dup3\n        /* \"#utility.yul\":6570:6590   */\n      tag_105\n      jump\t// in\n    tag_190:\n        /* \"#utility.yul\":6565:6590   */\n      swap2\n      pop\n        /* \"#utility.yul\":6604:6624   */\n      tag_191\n        /* \"#utility.yul\":6622:6623   */\n      dup4\n        /* \"#utility.yul\":6604:6624   */\n      tag_105\n      jump\t// in\n    tag_191:\n        /* \"#utility.yul\":6599:6624   */\n      swap3\n      pop\n        /* \"#utility.yul\":6659:6660   */\n      dup3\n        /* \"#utility.yul\":6656:6657   */\n      dup3\n        /* \"#utility.yul\":6652:6661   */\n      mul\n        /* \"#utility.yul\":6681:6711   */\n      tag_192\n        /* \"#utility.yul\":6699:6710   */\n      dup2\n        /* \"#utility.yul\":6681:6711   */\n      tag_105\n      jump\t// in\n    tag_192:\n        /* \"#utility.yul\":6670:6711   */\n      swap2\n      pop\n        /* \"#utility.yul\":6860:6861   */\n      dup3\n        /* \"#utility.yul\":6851:6858   */\n      dup3\n        /* \"#utility.yul\":6847:6862   */\n      div\n        /* \"#utility.yul\":6844:6845   */\n      dup5\n        /* \"#utility.yul\":6841:6863   */\n      eq\n        /* \"#utility.yul\":6821:6822   */\n      dup4\n        /* \"#utility.yul\":6814:6823   */\n      iszero\n        /* \"#utility.yul\":6794:6877   */\n      or\n        /* \"#utility.yul\":6771:6910   */\n      tag_193\n      jumpi\n        /* \"#utility.yul\":6890:6908   */\n      tag_194\n      tag_113\n      jump\t// in\n    tag_194:\n        /* \"#utility.yul\":6771:6910   */\n    tag_193:\n        /* \"#utility.yul\":6555:6917   */\n      pop\n        /* \"#utility.yul\":6507:6917   */\n      swap3\n      swap2\n      pop\n      pop\n      jump\t// out\n        /* \"#utility.yul\":6923:7103   */\n    tag_119:\n        /* \"#utility.yul\":6971:7048   */\n      0x4e487b7100000000000000000000000000000000000000000000000000000000\n        /* \"#utility.yul\":6968:6969   */\n      0x00\n        /* \"#utility.yul\":6961:7049   */\n      mstore\n        /* \"#utility.yul\":7068:7072   */\n      0x12\n        /* \"#utility.yul\":7065:7066   */\n      0x04\n        /* \"#utility.yul\":7058:7073   */\n      mstore\n        /* \"#utility.yul\":7092:7096   */\n      0x24\n        /* \"#utility.yul\":7089:7090   */\n      0x00\n        /* \"#utility.yul\":7082:7097   */\n      revert\n        /* \"#utility.yul\":7109:7294   */\n    tag_83:\n        /* \"#utility.yul\":7149:7150   */\n      0x00\n        /* \"#utility.yul\":7166:7186   */\n      tag_197\n        /* \"#utility.yul\":7184:7185   */\n      dup3\n        /* \"#utility.yul\":7166:7186   */\n      tag_105\n      jump\t// in\n    tag_197:\n        /* \"#utility.yul\":7161:7186   */\n      swap2\n      pop\n        /* \"#utility.yul\":7200:7220   */\n      tag_198\n        /* \"#utility.yul\":7218:7219   */\n      dup4\n        /* \"#utility.yul\":7200:7220   */\n      tag_105\n      jump\t// in\n    tag_198:\n        /* \"#utility.yul\":7195:7220   */\n      swap3\n      pop\n        /* \"#utility.yul\":7239:7240   */\n      dup3\n        /* \"#utility.yul\":7229:7264   */\n      tag_199\n      jumpi\n        /* \"#utility.yul\":7244:7262   */\n      tag_200\n      tag_119\n      jump\t// in\n    tag_200:\n        /* \"#utility.yul\":7229:7264   */\n    tag_199:\n        /* \"#utility.yul\":7286:7287   */\n      dup3\n        /* \"#utility.yul\":7283:7284   */\n      dup3\n        /* \"#utility.yul\":7279:7288   */\n      div\n        /* \"#utility.yul\":7274:7288   */\n      swap1\n      pop\n        /* \"#utility.yul\":7109:7294   */\n      swap3\n      swap2\n      pop\n      pop\n      jump\t// out\n        /* \"#utility.yul\":7300:7405   */\n    tag_120:\n        /* \"#utility.yul\":7336:7343   */\n      0x00\n        /* \"#utility.yul\":7376:7398   */\n      0xffffffffffffffffffff\n        /* \"#utility.yul\":7369:7374   */\n      dup3\n        /* \"#utility.yul\":7365:7399   */\n      and\n        /* \"#utility.yul\":7354:7399   */\n      swap1\n      pop\n        /* \"#utility.yul\":7300:7405   */\n      swap2\n      swap1\n      pop\n      jump\t// out\n        /* \"#utility.yul\":7411:7531   */\n    tag_121:\n        /* \"#utility.yul\":7483:7506   */\n      tag_203\n        /* \"#utility.yul\":7500:7505   */\n      dup2\n        /* \"#utility.yul\":7483:7506   */\n      tag_120\n      jump\t// in\n    tag_203:\n        /* \"#utility.yul\":7476:7481   */\n      dup2\n        /* \"#utility.yul\":7473:7507   */\n      eq\n        /* \"#utility.yul\":7463:7525   */\n      tag_204\n      jumpi\n        /* \"#utility.yul\":7521:7522   */\n      0x00\n        /* \"#utility.yul\":7518:7519   */\n      dup1\n        /* \"#utility.yul\":7511:7523   */\n      revert\n        /* \"#utility.yul\":7463:7525   */\n    tag_204:\n        /* \"#utility.yul\":7411:7531   */\n      pop\n      jump\t// out\n        /* \"#utility.yul\":7537:7678   */\n    tag_122:\n        /* \"#utility.yul\":7593:7598   */\n      0x00\n        /* \"#utility.yul\":7624:7630   */\n      dup2\n        /* \"#utility.yul\":7618:7631   */\n      mload\n        /* \"#utility.yul\":7609:7631   */\n      swap1\n      pop\n        /* \"#utility.yul\":7640:7672   */\n      tag_206\n        /* \"#utility.yul\":7666:7671   */\n      dup2\n        /* \"#utility.yul\":7640:7672   */\n      tag_121\n      jump\t// in\n    tag_206:\n        /* \"#utility.yul\":7537:7678   */\n      swap3\n      swap2\n      pop\n      pop\n      jump\t// out\n        /* \"#utility.yul\":7684:7760   */\n    tag_123:\n        /* \"#utility.yul\":7720:7727   */\n      0x00\n        /* \"#utility.yul\":7749:7754   */\n      dup2\n        /* \"#utility.yul\":7738:7754   */\n      swap1\n      pop\n        /* \"#utility.yul\":7684:7760   */\n      swap2\n      swap1\n      pop\n      jump\t// out\n        /* \"#utility.yul\":7766:7886   */\n    tag_124:\n        /* \"#utility.yul\":7838:7861   */\n      tag_209\n        /* \"#utility.yul\":7855:7860   */\n      dup2\n        /* \"#utility.yul\":7838:7861   */\n      tag_123\n      jump\t// in\n    tag_209:\n        /* \"#utility.yul\":7831:7836   */\n      dup2\n        /* \"#utility.yul\":7828:7862   */\n      eq\n        /* \"#utility.yul\":7818:7880   */\n      tag_210\n      jumpi\n        /* \"#utility.yul\":7876:7877   */\n      0x00\n        /* \"#utility.yul\":7873:7874   */\n      dup1\n        /* \"#utility.yul\":7866:7878   */\n      revert\n        /* \"#utility.yul\":7818:7880   */\n    tag_210:\n        /* \"#utility.yul\":7766:7886   */\n      pop\n      jump\t// out\n        /* \"#utility.yul\":7892:8033   */\n    tag_125:\n        /* \"#utility.yul\":7948:7953   */\n      0x00\n        /* \"#utility.yul\":7979:7985   */\n      dup2\n        /* \"#utility.yul\":7973:7986   */\n      mload\n        /* \"#utility.yul\":7964:7986   */\n      swap1\n      pop\n        /* \"#utility.yul\":7995:8027   */\n      tag_212\n        /* \"#utility.yul\":8021:8026   */\n      dup2\n        /* \"#utility.yul\":7995:8027   */\n      tag_124\n      jump\t// in\n    tag_212:\n        /* \"#utility.yul\":7892:8033   */\n      swap3\n      swap2\n      pop\n      pop\n      jump\t// out\n        /* \"#utility.yul\":8039:8182   */\n    tag_126:\n        /* \"#utility.yul\":8096:8101   */\n      0x00\n        /* \"#utility.yul\":8127:8133   */\n      dup2\n        /* \"#utility.yul\":8121:8134   */\n      mload\n        /* \"#utility.yul\":8112:8134   */\n      swap1\n      pop\n        /* \"#utility.yul\":8143:8176   */\n      tag_214\n        /* \"#utility.yul\":8170:8175   */\n      dup2\n        /* \"#utility.yul\":8143:8176   */\n      tag_108\n      jump\t// in\n    tag_214:\n        /* \"#utility.yul\":8039:8182   */\n      swap3\n      swap2\n      pop\n      pop\n      jump\t// out\n        /* \"#utility.yul\":8188:9159   */\n    tag_88:\n        /* \"#utility.yul\":8291:8297   */\n      0x00\n        /* \"#utility.yul\":8299:8305   */\n      dup1\n        /* \"#utility.yul\":8307:8313   */\n      0x00\n        /* \"#utility.yul\":8315:8321   */\n      dup1\n        /* \"#utility.yul\":8323:8329   */\n      0x00\n        /* \"#utility.yul\":8372:8375   */\n      0xa0\n        /* \"#utility.yul\":8360:8369   */\n      dup7\n        /* \"#utility.yul\":8351:8358   */\n      dup9\n        /* \"#utility.yul\":8347:8370   */\n      sub\n        /* \"#utility.yul\":8343:8376   */\n      slt\n        /* \"#utility.yul\":8340:8460   */\n      iszero\n      tag_216\n      jumpi\n        /* \"#utility.yul\":8379:8458   */\n      tag_217\n      tag_99\n      jump\t// in\n    tag_217:\n        /* \"#utility.yul\":8340:8460   */\n    tag_216:\n        /* \"#utility.yul\":8499:8500   */\n      0x00\n        /* \"#utility.yul\":8524:8587   */\n      tag_218\n        /* \"#utility.yul\":8579:8586   */\n      dup9\n        /* \"#utility.yul\":8570:8576   */\n      dup3\n        /* \"#utility.yul\":8559:8568   */\n      dup10\n        /* \"#utility.yul\":8555:8577   */\n      add\n        /* \"#utility.yul\":8524:8587   */\n      tag_122\n      jump\t// in\n    tag_218:\n        /* \"#utility.yul\":8514:8587   */\n      swap6\n      pop\n        /* \"#utility.yul\":8470:8597   */\n      pop\n        /* \"#utility.yul\":8636:8638   */\n      0x20\n        /* \"#utility.yul\":8662:8725   */\n      tag_219\n        /* \"#utility.yul\":8717:8724   */\n      dup9\n        /* \"#utility.yul\":8708:8714   */\n      dup3\n        /* \"#utility.yul\":8697:8706   */\n      dup10\n        /* \"#utility.yul\":8693:8715   */\n      add\n        /* \"#utility.yul\":8662:8725   */\n      tag_125\n      jump\t// in\n    tag_219:\n        /* \"#utility.yul\":8652:8725   */\n      swap5\n      pop\n        /* \"#utility.yul\":8607:8735   */\n      pop\n        /* \"#utility.yul\":8774:8776   */\n      0x40\n        /* \"#utility.yul\":8800:8864   */\n      tag_220\n        /* \"#utility.yul\":8856:8863   */\n      dup9\n        /* \"#utility.yul\":8847:8853   */\n      dup3\n        /* \"#utility.yul\":8836:8845   */\n      dup10\n        /* \"#utility.yul\":8832:8854   */\n      add\n        /* \"#utility.yul\":8800:8864   */\n      tag_126\n      jump\t// in\n    tag_220:\n        /* \"#utility.yul\":8790:8864   */\n      swap4\n      pop\n        /* \"#utility.yul\":8745:8874   */\n      pop\n        /* \"#utility.yul\":8913:8915   */\n      0x60\n        /* \"#utility.yul\":8939:9003   */\n      tag_221\n        /* \"#utility.yul\":8995:9002   */\n      dup9\n        /* \"#utility.yul\":8986:8992   */\n      dup3\n        /* \"#utility.yul\":8975:8984   */\n      dup10\n        /* \"#utility.yul\":8971:8993   */\n      add\n        /* \"#utility.yul\":8939:9003   */\n      tag_126\n      jump\t// in\n    tag_221:\n        /* \"#utility.yul\":8929:9003   */\n      swap3\n      pop\n        /* \"#utility.yul\":8884:9013   */\n      pop\n        /* \"#utility.yul\":9052:9055   */\n      0x80\n        /* \"#utility.yul\":9079:9142   */\n      tag_222\n        /* \"#utility.yul\":9134:9141   */\n      dup9\n        /* \"#utility.yul\":9125:9131   */\n      dup3\n        /* \"#utility.yul\":9114:9123   */\n      dup10\n        /* \"#utility.yul\":9110:9132   */\n      add\n        /* \"#utility.yul\":9079:9142   */\n      tag_122\n      jump\t// in\n    tag_222:\n        /* \"#utility.yul\":9069:9142   */\n      swap2\n      pop\n        /* \"#utility.yul\":9023:9152   */\n      pop\n        /* \"#utility.yul\":8188:9159   */\n      swap3\n      swap6\n      pop\n      swap3\n      swap6\n      swap1\n      swap4\n      pop\n      jump\t// out\n        /* \"#utility.yul\":9165:9721   */\n    tag_90:\n        /* \"#utility.yul\":9204:9211   */\n      0x00\n        /* \"#utility.yul\":9227:9246   */\n      tag_224\n        /* \"#utility.yul\":9244:9245   */\n      dup3\n        /* \"#utility.yul\":9227:9246   */\n      tag_123\n      jump\t// in\n    tag_224:\n        /* \"#utility.yul\":9222:9246   */\n      swap2\n      pop\n        /* \"#utility.yul\":9260:9279   */\n      tag_225\n        /* \"#utility.yul\":9277:9278   */\n      dup4\n        /* \"#utility.yul\":9260:9279   */\n      tag_123\n      jump\t// in\n    tag_225:\n        /* \"#utility.yul\":9255:9279   */\n      swap3\n      pop\n        /* \"#utility.yul\":9314:9315   */\n      dup3\n        /* \"#utility.yul\":9311:9312   */\n      dup3\n        /* \"#utility.yul\":9307:9316   */\n      mul\n        /* \"#utility.yul\":9336:9365   */\n      tag_226\n        /* \"#utility.yul\":9353:9364   */\n      dup2\n        /* \"#utility.yul\":9336:9365   */\n      tag_123\n      jump\t// in\n    tag_226:\n        /* \"#utility.yul\":9325:9365   */\n      swap2\n      pop\n        /* \"#utility.yul\":9423:9489   */\n      0x8000000000000000000000000000000000000000000000000000000000000000\n        /* \"#utility.yul\":9420:9421   */\n      dup5\n        /* \"#utility.yul\":9417:9490   */\n      eq\n        /* \"#utility.yul\":9413:9414   */\n      0x00\n        /* \"#utility.yul\":9410:9411   */\n      dup5\n        /* \"#utility.yul\":9406:9415   */\n      slt\n        /* \"#utility.yul\":9402:9491   */\n      and\n        /* \"#utility.yul\":9399:9514   */\n      iszero\n      tag_227\n      jumpi\n        /* \"#utility.yul\":9494:9512   */\n      tag_228\n      tag_113\n      jump\t// in\n    tag_228:\n        /* \"#utility.yul\":9399:9514   */\n    tag_227:\n        /* \"#utility.yul\":9664:9665   */\n      dup3\n        /* \"#utility.yul\":9655:9662   */\n      dup3\n        /* \"#utility.yul\":9650:9666   */\n      sdiv\n        /* \"#utility.yul\":9647:9648   */\n      dup5\n        /* \"#utility.yul\":9644:9667   */\n      eq\n        /* \"#utility.yul\":9624:9625   */\n      dup4\n        /* \"#utility.yul\":9617:9626   */\n      iszero\n        /* \"#utility.yul\":9597:9681   */\n      or\n        /* \"#utility.yul\":9574:9714   */\n      tag_229\n      jumpi\n        /* \"#utility.yul\":9694:9712   */\n      tag_230\n      tag_113\n      jump\t// in\n    tag_230:\n        /* \"#utility.yul\":9574:9714   */\n    tag_229:\n        /* \"#utility.yul\":9212:9721   */\n      pop\n        /* \"#utility.yul\":9165:9721   */\n      swap3\n      swap2\n      pop\n      pop\n      jump\t// out\n\n    auxdata: 0xa2646970667358221220d5d022389c46660ccee94fa191382620ee6d746d93b0190a19b72814b49cd69a64736f6c634300081a0033\n}\n",
				"bytecode": {
					"linkReferences": {},
					"object": "60a0604052348015600e575f80fd5b503373ffffffffffffffffffffffffffffffffffffffff1660808173ffffffffffffffffffffffffffffffffffffffff1681525050608051610be86100625f395f818161026601526104b30152610be85ff3fe608060405260043610610058575f3560e01c80633ccfd60b146100715780634e35fbd8146100875780636b69a592146100c3578063b60d4288146100ed578063dba6335f146100f7578063e873fee41461012157610067565b366100675761006561015d565b005b61006f61015d565b005b34801561007c575f80fd5b50610085610264565b005b348015610092575f80fd5b506100ad60048036038101906100a891906106ed565b610491565b6040516100ba9190610730565b60405180910390f35b3480156100ce575f80fd5b506100d76104a5565b6040516100e49190610730565b60405180910390f35b6100f561015d565b005b348015610102575f80fd5b5061010b6104b1565b6040516101189190610758565b60405180910390f35b34801561012c575f80fd5b506101476004803603810190610142919061079b565b6104d5565b6040516101549190610758565b60405180910390f35b674563918244f4000061016f34610510565b10156101b0576040517f08c379a00000000000000000000000000000000000000000000000000000000081526004016101a790610820565b60405180910390fd5b345f803373ffffffffffffffffffffffffffffffffffffffff1673ffffffffffffffffffffffffffffffffffffffff1681526020019081526020015f205f8282546101fb919061086b565b92505081905550600133908060018154018082558091505060019003905f5260205f20015f9091909190916101000a81548173ffffffffffffffffffffffffffffffffffffffff021916908373ffffffffffffffffffffffffffffffffffffffff160217905550565b7f000000000000000000000000000000000000000000000000000000000000000073ffffffffffffffffffffffffffffffffffffffff163373ffffffffffffffffffffffffffffffffffffffff16146102e9576040517f30cd747100000000000000000000000000000000000000000000000000000000815260040160405180910390fd5b5f5b600180549050811015610386575f6001828154811061030d5761030c61089e565b5b905f5260205f20015f9054906101000a900473ffffffffffffffffffffffffffffffffffffffff1690505f805f8373ffffffffffffffffffffffffffffffffffffffff1673ffffffffffffffffffffffffffffffffffffffff1681526020019081526020015f20819055505080806001019150506102eb565b505f67ffffffffffffffff8111156103a1576103a06108cb565b5b6040519080825280602002602001820160405280156103cf5781602001602082028036833780820191505090505b50600190805190602001906103e59291906105ed565b505f3373ffffffffffffffffffffffffffffffffffffffff164760405161040b90610925565b5f6040518083038185875af1925050503d805f8114610445576040519150601f19603f3d011682016040523d82523d5f602084013e61044a565b606091505b505090508061048e576040517f08c379a000000000000000000000000000000000000000000000000000000000815260040161048590610983565b60405180910390fd5b50565b5f602052805f5260405f205f915090505481565b674563918244f4000081565b7f000000000000000000000000000000000000000000000000000000000000000081565b600181815481106104e4575f80fd5b905f5260205f20015f915054906101000a900473ffffffffffffffffffffffffffffffffffffffff1681565b5f8061051a610548565b90505f670de0b6b3a7640000848361053291906109a1565b61053c9190610a0f565b90508092505050919050565b5f8073694aa1769357215de4fac081bf1f309adc32530690505f8173ffffffffffffffffffffffffffffffffffffffff1663feaf968c6040518163ffffffff1660e01b815260040160a060405180830381865afa1580156105ab573d5f803e3d5ffd5b505050506040513d601f19601f820116820180604052508101906105cf9190610ac5565b5050509150506402540be400816105e69190610b3c565b9250505090565b828054828255905f5260205f20908101928215610663579160200282015b82811115610662578251825f6101000a81548173ffffffffffffffffffffffffffffffffffffffff021916908373ffffffffffffffffffffffffffffffffffffffff1602179055509160200191906001019061060b565b5b5090506106709190610674565b5090565b5b8082111561068b575f815f905550600101610675565b5090565b5f80fd5b5f73ffffffffffffffffffffffffffffffffffffffff82169050919050565b5f6106bc82610693565b9050919050565b6106cc816106b2565b81146106d6575f80fd5b50565b5f813590506106e7816106c3565b92915050565b5f602082840312156107025761070161068f565b5b5f61070f848285016106d9565b91505092915050565b5f819050919050565b61072a81610718565b82525050565b5f6020820190506107435f830184610721565b92915050565b610752816106b2565b82525050565b5f60208201905061076b5f830184610749565b92915050565b61077a81610718565b8114610784575f80fd5b50565b5f8135905061079581610771565b92915050565b5f602082840312156107b0576107af61068f565b5b5f6107bd84828501610787565b91505092915050565b5f82825260208201905092915050565b7f596f75206e65656420746f207370656e64206d6f7265204554482100000000005f82015250565b5f61080a601b836107c6565b9150610815826107d6565b602082019050919050565b5f6020820190508181035f830152610837816107fe565b9050919050565b7f4e487b71000000000000000000000000000000000000000000000000000000005f52601160045260245ffd5b5f61087582610718565b915061088083610718565b92508282019050808211156108985761089761083e565b5b92915050565b7f4e487b71000000000000000000000000000000000000000000000000000000005f52603260045260245ffd5b7f4e487b71000000000000000000000000000000000000000000000000000000005f52604160045260245ffd5b5f81905092915050565b50565b5f6109105f836108f8565b915061091b82610902565b5f82019050919050565b5f61092f82610905565b9150819050919050565b7f43616c6c206661696c65640000000000000000000000000000000000000000005f82015250565b5f61096d600b836107c6565b915061097882610939565b602082019050919050565b5f6020820190508181035f83015261099a81610961565b9050919050565b5f6109ab82610718565b91506109b683610718565b92508282026109c481610718565b915082820484148315176109db576109da61083e565b5b5092915050565b7f4e487b71000000000000000000000000000000000000000000000000000000005f52601260045260245ffd5b5f610a1982610718565b9150610a2483610718565b925082610a3457610a336109e2565b5b828204905092915050565b5f69ffffffffffffffffffff82169050919050565b610a5d81610a3f565b8114610a67575f80fd5b50565b5f81519050610a7881610a54565b92915050565b5f819050919050565b610a9081610a7e565b8114610a9a575f80fd5b50565b5f81519050610aab81610a87565b92915050565b5f81519050610abf81610771565b92915050565b5f805f805f60a08688031215610ade57610add61068f565b5b5f610aeb88828901610a6a565b9550506020610afc88828901610a9d565b9450506040610b0d88828901610ab1565b9350506060610b1e88828901610ab1565b9250506080610b2f88828901610a6a565b9150509295509295909350565b5f610b4682610a7e565b9150610b5183610a7e565b9250828202610b5f81610a7e565b91507f800000000000000000000000000000000000000000000000000000000000000084145f84121615610b9657610b9561083e565b5b8282058414831517610bab57610baa61083e565b5b509291505056fea2646970667358221220d5d022389c46660ccee94fa191382620ee6d746d93b0190a19b72814b49cd69a64736f6c634300081a0033",
					"opcodes": "PUSH1 0xA0 PUSH1 0x40 MSTORE CALLVALUE DUP1 ISZERO PUSH1 0xE JUMPI PUSH0 DUP1 REVERT JUMPDEST POP CALLER PUSH20 0xFFFFFFFFFFFFFFFFFFFFFFFFFFFFFFFFFFFFFFFF AND PUSH1 0x80 DUP2 PUSH20 0xFFFFFFFFFFFFFFFFFFFFFFFFFFFFFFFFFFFFFFFF AND DUP2 MSTORE POP POP PUSH1 0x80 MLOAD PUSH2 0xBE8 PUSH2 0x62 PUSH0 CODECOPY PUSH0 DUP2 DUP2 PUSH2 0x266 ADD MSTORE PUSH2 0x4B3 ADD MSTORE PUSH2 0xBE8 PUSH0 RETURN INVALID PUSH1 0x80 PUSH1 0x40 MSTORE PUSH1 0x4 CALLDATASIZE LT PUSH2 0x58 JUMPI PUSH0 CALLDATALOAD PUSH1 0xE0 SHR DUP1 PUSH4 0x3CCFD60B EQ PUSH2 0x71 JUMPI DUP1 PUSH4 0x4E35FBD8 EQ PUSH2 0x87 JUMPI DUP1 PUSH4 0x6B69A592 EQ PUSH2 0xC3 JUMPI DUP1 PUSH4 0xB60D4288 EQ PUSH2 0xED JUMPI DUP1 PUSH4 0xDBA6335F EQ PUSH2 0xF7 JUMPI DUP1 PUSH4 0xE873FEE4 EQ PUSH2 0x121 JUMPI PUSH2 0x67 JUMP JUMPDEST CALLDATASIZE PUSH2 0x67 JUMPI PUSH2 0x65 PUSH2 0x15D JUMP JUMPDEST STOP JUMPDEST PUSH2 0x6F PUSH2 0x15D JUMP JUMPDEST STOP JUMPDEST CALLVALUE DUP1 ISZERO PUSH2 0x7C JUMPI PUSH0 DUP1 REVERT JUMPDEST POP PUSH2 0x85 PUSH2 0x264 JUMP JUMPDEST STOP JUMPDEST CALLVALUE DUP1 ISZERO PUSH2 0x92 JUMPI PUSH0 DUP1 REVERT JUMPDEST POP PUSH2 0xAD PUSH1 0x4 DUP1 CALLDATASIZE SUB DUP2 ADD SWAP1 PUSH2 0xA8 SWAP2 SWAP1 PUSH2 0x6ED JUMP JUMPDEST PUSH2 0x491 JUMP JUMPDEST PUSH1 0x40 MLOAD PUSH2 0xBA SWAP2 SWAP1 PUSH2 0x730 JUMP JUMPDEST PUSH1 0x40 MLOAD DUP1 SWAP2 SUB SWAP1 RETURN JUMPDEST CALLVALUE DUP1 ISZERO PUSH2 0xCE JUMPI PUSH0 DUP1 REVERT JUMPDEST POP PUSH2 0xD7 PUSH2 0x4A5 JUMP JUMPDEST PUSH1 0x40 MLOAD PUSH2 0xE4 SWAP2 SWAP1 PUSH2 0x730 JUMP JUMPDEST PUSH1 0x40 MLOAD DUP1 SWAP2 SUB SWAP1 RETURN JUMPDEST PUSH2 0xF5 PUSH2 0x15D JUMP JUMPDEST STOP JUMPDEST CALLVALUE DUP1 ISZERO PUSH2 0x102 JUMPI PUSH0 DUP1 REVERT JUMPDEST POP PUSH2 0x10B PUSH2 0x4B1 JUMP JUMPDEST PUSH1 0x40 MLOAD PUSH2 0x118 SWAP2 SWAP1 PUSH2 0x758 JUMP JUMPDEST PUSH1 0x40 MLOAD DUP1 SWAP2 SUB SWAP1 RETURN JUMPDEST CALLVALUE DUP1 ISZERO PUSH2 0x12C JUMPI PUSH0 DUP1 REVERT JUMPDEST POP PUSH2 0x147 PUSH1 0x4 DUP1 CALLDATASIZE SUB DUP2 ADD SWAP1 PUSH2 0x142 SWAP2 SWAP1 PUSH2 0x79B JUMP JUMPDEST PUSH2 0x4D5 JUMP JUMPDEST PUSH1 0x40 MLOAD PUSH2 0x154 SWAP2 SWAP1 PUSH2 0x758 JUMP JUMPDEST PUSH1 0x40 MLOAD DUP1 SWAP2 SUB SWAP1 RETURN JUMPDEST PUSH8 0x4563918244F40000 PUSH2 0x16F CALLVALUE PUSH2 0x510 JUMP JUMPDEST LT ISZERO PUSH2 0x1B0 JUMPI PUSH1 0x40 MLOAD PUSH32 0x8C379A000000000000000000000000000000000000000000000000000000000 DUP2 MSTORE PUSH1 0x4 ADD PUSH2 0x1A7 SWAP1 PUSH2 0x820 JUMP JUMPDEST PUSH1 0x40 MLOAD DUP1 SWAP2 SUB SWAP1 REVERT JUMPDEST CALLVALUE PUSH0 DUP1 CALLER PUSH20 0xFFFFFFFFFFFFFFFFFFFFFFFFFFFFFFFFFFFFFFFF AND PUSH20 0xFFFFFFFFFFFFFFFFFFFFFFFFFFFFFFFFFFFFFFFF AND DUP2 MSTORE PUSH1 0x20 ADD SWAP1 DUP2 MSTORE PUSH1 0x20 ADD PUSH0 KECCAK256 PUSH0 DUP3 DUP3 SLOAD PUSH2 0x1FB SWAP2 SWAP1 PUSH2 0x86B JUMP JUMPDEST SWAP3 POP POP DUP2 SWAP1 SSTORE POP PUSH1 0x1 CALLER SWAP1 DUP1 PUSH1 0x1 DUP2 SLOAD ADD DUP1 DUP3 SSTORE DUP1 SWAP2 POP POP PUSH1 0x1 SWAP1 SUB SWAP1 PUSH0 MSTORE PUSH1 0x20 PUSH0 KECCAK256 ADD PUSH0 SWAP1 SWAP2 SWAP1 SWAP2 SWAP1 SWAP2 PUSH2 0x100 EXP DUP2 SLOAD DUP2 PUSH20 0xFFFFFFFFFFFFFFFFFFFFFFFFFFFFFFFFFFFFFFFF MUL NOT AND SWAP1 DUP4 PUSH20 0xFFFFFFFFFFFFFFFFFFFFFFFFFFFFFFFFFFFFFFFF AND MUL OR SWAP1 SSTORE POP JUMP JUMPDEST PUSH32 0x0 PUSH20 0xFFFFFFFFFFFFFFFFFFFFFFFFFFFFFFFFFFFFFFFF AND CALLER PUSH20 0xFFFFFFFFFFFFFFFFFFFFFFFFFFFFFFFFFFFFFFFF AND EQ PUSH2 0x2E9 JUMPI PUSH1 0x40 MLOAD PUSH32 0x30CD747100000000000000000000000000000000000000000000000000000000 DUP2 MSTORE PUSH1 0x4 ADD PUSH1 0x40 MLOAD DUP1 SWAP2 SUB SWAP1 REVERT JUMPDEST PUSH0 JUMPDEST PUSH1 0x1 DUP1 SLOAD SWAP1 POP DUP2 LT ISZERO PUSH2 0x386 JUMPI PUSH0 PUSH1 0x1 DUP3 DUP2 SLOAD DUP2 LT PUSH2 0x30D JUMPI PUSH2 0x30C PUSH2 0x89E JUMP JUMPDEST JUMPDEST SWAP1 PUSH0 MSTORE PUSH1 0x20 PUSH0 KECCAK256 ADD PUSH0 SWAP1 SLOAD SWAP1 PUSH2 0x100 EXP SWAP1 DIV PUSH20 0xFFFFFFFFFFFFFFFFFFFFFFFFFFFFFFFFFFFFFFFF AND SWAP1 POP PUSH0 DUP1 PUSH0 DUP4 PUSH20 0xFFFFFFFFFFFFFFFFFFFFFFFFFFFFFFFFFFFFFFFF AND PUSH20 0xFFFFFFFFFFFFFFFFFFFFFFFFFFFFFFFFFFFFFFFF AND DUP2 MSTORE PUSH1 0x20 ADD SWAP1 DUP2 MSTORE PUSH1 0x20 ADD PUSH0 KECCAK256 DUP2 SWAP1 SSTORE POP POP DUP1 DUP1 PUSH1 0x1 ADD SWAP2 POP POP PUSH2 0x2EB JUMP JUMPDEST POP PUSH0 PUSH8 0xFFFFFFFFFFFFFFFF DUP2 GT ISZERO PUSH2 0x3A1 JUMPI PUSH2 0x3A0 PUSH2 0x8CB JUMP JUMPDEST JUMPDEST PUSH1 0x40 MLOAD SWAP1 DUP1 DUP3 MSTORE DUP1 PUSH1 0x20 MUL PUSH1 0x20 ADD DUP3 ADD PUSH1 0x40 MSTORE DUP1 ISZERO PUSH2 0x3CF JUMPI DUP2 PUSH1 0x20 ADD PUSH1 0x20 DUP3 MUL DUP1 CALLDATASIZE DUP4 CALLDATACOPY DUP1 DUP3 ADD SWAP2 POP POP SWAP1 POP JUMPDEST POP PUSH1 0x1 SWAP1 DUP1 MLOAD SWAP1 PUSH1 0x20 ADD SWAP1 PUSH2 0x3E5 SWAP3 SWAP2 SWAP1 PUSH2 0x5ED JUMP JUMPDEST POP PUSH0 CALLER PUSH20 0xFFFFFFFFFFFFFFFFFFFFFFFFFFFFFFFFFFFFFFFF AND SELFBALANCE PUSH1 0x40 MLOAD PUSH2 0x40B SWAP1 PUSH2 0x925 JUMP JUMPDEST PUSH0 PUSH1 0x40 MLOAD DUP1 DUP4 SUB DUP2 DUP6 DUP8 GAS CALL SWAP3 POP POP POP RETURNDATASIZE DUP1 PUSH0 DUP2 EQ PUSH2 0x445 JUMPI PUSH1 0x40 MLOAD SWAP2 POP PUSH1 0x1F NOT PUSH1 0x3F RETURNDATASIZE ADD AND DUP3 ADD PUSH1 0x40 MSTORE RETURNDATASIZE DUP3 MSTORE RETURNDATASIZE PUSH0 PUSH1 0x20 DUP5 ADD RETURNDATACOPY PUSH2 0x44A JUMP JUMPDEST PUSH1 0x60 SWAP2 POP JUMPDEST POP POP SWAP1 POP DUP1 PUSH2 0x48E JUMPI PUSH1 0x40 MLOAD PUSH32 0x8C379A000000000000000000000000000000000000000000000000000000000 DUP2 MSTORE PUSH1 0x4 ADD PUSH2 0x485 SWAP1 PUSH2 0x983 JUMP JUMPDEST PUSH1 0x40 MLOAD DUP1 SWAP2 SUB SWAP1 REVERT JUMPDEST POP JUMP JUMPDEST PUSH0 PUSH1 0x20 MSTORE DUP1 PUSH0 MSTORE PUSH1 0x40 PUSH0 KECCAK256 PUSH0 SWAP2 POP SWAP1 POP SLOAD DUP2 JUMP JUMPDEST PUSH8 0x4563918244F40000 DUP2 JUMP JUMPDEST PUSH32 0x0 DUP2 JUMP JUMPDEST PUSH1 0x1 DUP2 DUP2 SLOAD DUP2 LT PUSH2 0x4E4 JUMPI PUSH0 DUP1 REVERT JUMPDEST SWAP1 PUSH0 MSTORE PUSH1 0x20 PUSH0 KECCAK256 ADD PUSH0 SWAP2 POP SLOAD SWAP1 PUSH2 0x100 EXP SWAP1 DIV PUSH20 0xFFFFFFFFFFFFFFFFFFFFFFFFFFFFFFFFFFFFFFFF AND DUP2 JUMP JUMPDEST PUSH0 DUP1 PUSH2 0x51A PUSH2 0x548 JUMP JUMPDEST SWAP1 POP PUSH0 PUSH8 0xDE0B6B3A7640000 DUP5 DUP4 PUSH2 0x532 SWAP2 SWAP1 PUSH2 0x9A1 JUMP JUMPDEST PUSH2 0x53C SWAP2 SWAP1 PUSH2 0xA0F JUMP JUMPDEST SWAP1 POP DUP1 SWAP3 POP POP POP SWAP2 SWAP1 POP JUMP JUMPDEST PUSH0 DUP1 PUSH20 0x694AA1769357215DE4FAC081BF1F309ADC325306 SWAP1 POP PUSH0 DUP2 PUSH20 0xFFFFFFFFFFFFFFFFFFFFFFFFFFFFFFFFFFFFFFFF AND PUSH4 0xFEAF968C PUSH1 0x40 MLOAD DUP2 PUSH4 0xFFFFFFFF AND PUSH1 0xE0 SHL DUP2 MSTORE PUSH1 0x4 ADD PUSH1 0xA0 PUSH1 0x40 MLOAD DUP1 DUP4 SUB DUP2 DUP7 GAS STATICCALL ISZERO DUP1 ISZERO PUSH2 0x5AB JUMPI RETURNDATASIZE PUSH0 DUP1 RETURNDATACOPY RETURNDATASIZE PUSH0 REVERT JUMPDEST POP POP POP POP PUSH1 0x40 MLOAD RETURNDATASIZE PUSH1 0x1F NOT PUSH1 0x1F DUP3 ADD AND DUP3 ADD DUP1 PUSH1 0x40 MSTORE POP DUP2 ADD SWAP1 PUSH2 0x5CF SWAP2 SWAP1 PUSH2 0xAC5 JUMP JUMPDEST POP POP POP SWAP2 POP POP PUSH5 0x2540BE400 DUP2 PUSH2 0x5E6 SWAP2 SWAP1 PUSH2 0xB3C JUMP JUMPDEST SWAP3 POP POP POP SWAP1 JUMP JUMPDEST DUP3 DUP1 SLOAD DUP3 DUP3 SSTORE SWAP1 PUSH0 MSTORE PUSH1 0x20 PUSH0 KECCAK256 SWAP1 DUP2 ADD SWAP3 DUP3 ISZERO PUSH2 0x663 JUMPI SWAP2 PUSH1 0x20 MUL DUP3 ADD JUMPDEST DUP3 DUP2 GT ISZERO PUSH2 0x662 JUMPI DUP3 MLOAD DUP3 PUSH0 PUSH2 0x100 EXP DUP2 SLOAD DUP2 PUSH20 0xFFFFFFFFFFFFFFFFFFFFFFFFFFFFFFFFFFFFFFFF MUL NOT AND SWAP1 DUP4 PUSH20 0xFFFFFFFFFFFFFFFFFFFFFFFFFFFFFFFFFFFFFFFF AND MUL OR SWAP1 SSTORE POP SWAP2 PUSH1 0x20 ADD SWAP2 SWAP1 PUSH1 0x1 ADD SWAP1 PUSH2 0x60B JUMP JUMPDEST JUMPDEST POP SWAP1 POP PUSH2 0x670 SWAP2 SWAP1 PUSH2 0x674 JUMP JUMPDEST POP SWAP1 JUMP JUMPDEST JUMPDEST DUP1 DUP3 GT ISZERO PUSH2 0x68B JUMPI PUSH0 DUP2 PUSH0 SWAP1 SSTORE POP PUSH1 0x1 ADD PUSH2 0x675 JUMP JUMPDEST POP SWAP1 JUMP JUMPDEST PUSH0 DUP1 REVERT JUMPDEST PUSH0 PUSH20 0xFFFFFFFFFFFFFFFFFFFFFFFFFFFFFFFFFFFFFFFF DUP3 AND SWAP1 POP SWAP2 SWAP1 POP JUMP JUMPDEST PUSH0 PUSH2 0x6BC DUP3 PUSH2 0x693 JUMP JUMPDEST SWAP1 POP SWAP2 SWAP1 POP JUMP JUMPDEST PUSH2 0x6CC DUP2 PUSH2 0x6B2 JUMP JUMPDEST DUP2 EQ PUSH2 0x6D6 JUMPI PUSH0 DUP1 REVERT JUMPDEST POP JUMP JUMPDEST PUSH0 DUP2 CALLDATALOAD SWAP1 POP PUSH2 0x6E7 DUP2 PUSH2 0x6C3 JUMP JUMPDEST SWAP3 SWAP2 POP POP JUMP JUMPDEST PUSH0 PUSH1 0x20 DUP3 DUP5 SUB SLT ISZERO PUSH2 0x702 JUMPI PUSH2 0x701 PUSH2 0x68F JUMP JUMPDEST JUMPDEST PUSH0 PUSH2 0x70F DUP5 DUP3 DUP6 ADD PUSH2 0x6D9 JUMP JUMPDEST SWAP2 POP POP SWAP3 SWAP2 POP POP JUMP JUMPDEST PUSH0 DUP2 SWAP1 POP SWAP2 SWAP1 POP JUMP JUMPDEST PUSH2 0x72A DUP2 PUSH2 0x718 JUMP JUMPDEST DUP3 MSTORE POP POP JUMP JUMPDEST PUSH0 PUSH1 0x20 DUP3 ADD SWAP1 POP PUSH2 0x743 PUSH0 DUP4 ADD DUP5 PUSH2 0x721 JUMP JUMPDEST SWAP3 SWAP2 POP POP JUMP JUMPDEST PUSH2 0x752 DUP2 PUSH2 0x6B2 JUMP JUMPDEST DUP3 MSTORE POP POP JUMP JUMPDEST PUSH0 PUSH1 0x20 DUP3 ADD SWAP1 POP PUSH2 0x76B PUSH0 DUP4 ADD DUP5 PUSH2 0x749 JUMP JUMPDEST SWAP3 SWAP2 POP POP JUMP JUMPDEST PUSH2 0x77A DUP2 PUSH2 0x718 JUMP JUMPDEST DUP2 EQ PUSH2 0x784 JUMPI PUSH0 DUP1 REVERT JUMPDEST POP JUMP JUMPDEST PUSH0 DUP2 CALLDATALOAD SWAP1 POP PUSH2 0x795 DUP2 PUSH2 0x771 JUMP JUMPDEST SWAP3 SWAP2 POP POP JUMP JUMPDEST PUSH0 PUSH1 0x20 DUP3 DUP5 SUB SLT ISZERO PUSH2 0x7B0 JUMPI PUSH2 0x7AF PUSH2 0x68F JUMP JUMPDEST JUMPDEST PUSH0 PUSH2 0x7BD DUP5 DUP3 DUP6 ADD PUSH2 0x787 JUMP JUMPDEST SWAP2 POP POP SWAP3 SWAP2 POP POP JUMP JUMPDEST PUSH0 DUP3 DUP3 MSTORE PUSH1 0x20 DUP3 ADD SWAP1 POP SWAP3 SWAP2 POP POP JUMP JUMPDEST PUSH32 0x596F75206E65656420746F207370656E64206D6F726520455448210000000000 PUSH0 DUP3 ADD MSTORE POP JUMP JUMPDEST PUSH0 PUSH2 0x80A PUSH1 0x1B DUP4 PUSH2 0x7C6 JUMP JUMPDEST SWAP2 POP PUSH2 0x815 DUP3 PUSH2 0x7D6 JUMP JUMPDEST PUSH1 0x20 DUP3 ADD SWAP1 POP SWAP2 SWAP1 POP JUMP JUMPDEST PUSH0 PUSH1 0x20 DUP3 ADD SWAP1 POP DUP2 DUP2 SUB PUSH0 DUP4 ADD MSTORE PUSH2 0x837 DUP2 PUSH2 0x7FE JUMP JUMPDEST SWAP1 POP SWAP2 SWAP1 POP JUMP JUMPDEST PUSH32 0x4E487B7100000000000000000000000000000000000000000000000000000000 PUSH0 MSTORE PUSH1 0x11 PUSH1 0x4 MSTORE PUSH1 0x24 PUSH0 REVERT JUMPDEST PUSH0 PUSH2 0x875 DUP3 PUSH2 0x718 JUMP JUMPDEST SWAP2 POP PUSH2 0x880 DUP4 PUSH2 0x718 JUMP JUMPDEST SWAP3 POP DUP3 DUP3 ADD SWAP1 POP DUP1 DUP3 GT ISZERO PUSH2 0x898 JUMPI PUSH2 0x897 PUSH2 0x83E JUMP JUMPDEST JUMPDEST SWAP3 SWAP2 POP POP JUMP JUMPDEST PUSH32 0x4E487B7100000000000000000000000000000000000000000000000000000000 PUSH0 MSTORE PUSH1 0x32 PUSH1 0x4 MSTORE PUSH1 0x24 PUSH0 REVERT JUMPDEST PUSH32 0x4E487B7100000000000000000000000000000000000000000000000000000000 PUSH0 MSTORE PUSH1 0x41 PUSH1 0x4 MSTORE PUSH1 0x24 PUSH0 REVERT JUMPDEST PUSH0 DUP2 SWAP1 POP SWAP3 SWAP2 POP POP JUMP JUMPDEST POP JUMP JUMPDEST PUSH0 PUSH2 0x910 PUSH0 DUP4 PUSH2 0x8F8 JUMP JUMPDEST SWAP2 POP PUSH2 0x91B DUP3 PUSH2 0x902 JUMP JUMPDEST PUSH0 DUP3 ADD SWAP1 POP SWAP2 SWAP1 POP JUMP JUMPDEST PUSH0 PUSH2 0x92F DUP3 PUSH2 0x905 JUMP JUMPDEST SWAP2 POP DUP2 SWAP1 POP SWAP2 SWAP1 POP JUMP JUMPDEST PUSH32 0x43616C6C206661696C6564000000000000000000000000000000000000000000 PUSH0 DUP3 ADD MSTORE POP JUMP JUMPDEST PUSH0 PUSH2 0x96D PUSH1 0xB DUP4 PUSH2 0x7C6 JUMP JUMPDEST SWAP2 POP PUSH2 0x978 DUP3 PUSH2 0x939 JUMP JUMPDEST PUSH1 0x20 DUP3 ADD SWAP1 POP SWAP2 SWAP1 POP JUMP JUMPDEST PUSH0 PUSH1 0x20 DUP3 ADD SWAP1 POP DUP2 DUP2 SUB PUSH0 DUP4 ADD MSTORE PUSH2 0x99A DUP2 PUSH2 0x961 JUMP JUMPDEST SWAP1 POP SWAP2 SWAP1 POP JUMP JUMPDEST PUSH0 PUSH2 0x9AB DUP3 PUSH2 0x718 JUMP JUMPDEST SWAP2 POP PUSH2 0x9B6 DUP4 PUSH2 0x718 JUMP JUMPDEST SWAP3 POP DUP3 DUP3 MUL PUSH2 0x9C4 DUP2 PUSH2 0x718 JUMP JUMPDEST SWAP2 POP DUP3 DUP3 DIV DUP5 EQ DUP4 ISZERO OR PUSH2 0x9DB JUMPI PUSH2 0x9DA PUSH2 0x83E JUMP JUMPDEST JUMPDEST POP SWAP3 SWAP2 POP POP JUMP JUMPDEST PUSH32 0x4E487B7100000000000000000000000000000000000000000000000000000000 PUSH0 MSTORE PUSH1 0x12 PUSH1 0x4 MSTORE PUSH1 0x24 PUSH0 REVERT JUMPDEST PUSH0 PUSH2 0xA19 DUP3 PUSH2 0x718 JUMP JUMPDEST SWAP2 POP PUSH2 0xA24 DUP4 PUSH2 0x718 JUMP JUMPDEST SWAP3 POP DUP3 PUSH2 0xA34 JUMPI PUSH2 0xA33 PUSH2 0x9E2 JUMP JUMPDEST JUMPDEST DUP3 DUP3 DIV SWAP1 POP SWAP3 SWAP2 POP POP JUMP JUMPDEST PUSH0 PUSH10 0xFFFFFFFFFFFFFFFFFFFF DUP3 AND SWAP1 POP SWAP2 SWAP1 POP JUMP JUMPDEST PUSH2 0xA5D DUP2 PUSH2 0xA3F JUMP JUMPDEST DUP2 EQ PUSH2 0xA67 JUMPI PUSH0 DUP1 REVERT JUMPDEST POP JUMP JUMPDEST PUSH0 DUP2 MLOAD SWAP1 POP PUSH2 0xA78 DUP2 PUSH2 0xA54 JUMP JUMPDEST SWAP3 SWAP2 POP POP JUMP JUMPDEST PUSH0 DUP2 SWAP1 POP SWAP2 SWAP1 POP JUMP JUMPDEST PUSH2 0xA90 DUP2 PUSH2 0xA7E JUMP JUMPDEST DUP2 EQ PUSH2 0xA9A JUMPI PUSH0 DUP1 REVERT JUMPDEST POP JUMP JUMPDEST PUSH0 DUP2 MLOAD SWAP1 POP PUSH2 0xAAB DUP2 PUSH2 0xA87 JUMP JUMPDEST SWAP3 SWAP2 POP POP JUMP JUMPDEST PUSH0 DUP2 MLOAD SWAP1 POP PUSH2 0xABF DUP2 PUSH2 0x771 JUMP JUMPDEST SWAP3 SWAP2 POP POP JUMP JUMPDEST PUSH0 DUP1 PUSH0 DUP1 PUSH0 PUSH1 0xA0 DUP7 DUP9 SUB SLT ISZERO PUSH2 0xADE JUMPI PUSH2 0xADD PUSH2 0x68F JUMP JUMPDEST JUMPDEST PUSH0 PUSH2 0xAEB DUP9 DUP3 DUP10 ADD PUSH2 0xA6A JUMP JUMPDEST SWAP6 POP POP PUSH1 0x20 PUSH2 0xAFC DUP9 DUP3 DUP10 ADD PUSH2 0xA9D JUMP JUMPDEST SWAP5 POP POP PUSH1 0x40 PUSH2 0xB0D DUP9 DUP3 DUP10 ADD PUSH2 0xAB1 JUMP JUMPDEST SWAP4 POP POP PUSH1 0x60 PUSH2 0xB1E DUP9 DUP3 DUP10 ADD PUSH2 0xAB1 JUMP JUMPDEST SWAP3 POP POP PUSH1 0x80 PUSH2 0xB2F DUP9 DUP3 DUP10 ADD PUSH2 0xA6A JUMP JUMPDEST SWAP2 POP POP SWAP3 SWAP6 POP SWAP3 SWAP6 SWAP1 SWAP4 POP JUMP JUMPDEST PUSH0 PUSH2 0xB46 DUP3 PUSH2 0xA7E JUMP JUMPDEST SWAP2 POP PUSH2 0xB51 DUP4 PUSH2 0xA7E JUMP JUMPDEST SWAP3 POP DUP3 DUP3 MUL PUSH2 0xB5F DUP2 PUSH2 0xA7E JUMP JUMPDEST SWAP2 POP PUSH32 0x8000000000000000000000000000000000000000000000000000000000000000 DUP5 EQ PUSH0 DUP5 SLT AND ISZERO PUSH2 0xB96 JUMPI PUSH2 0xB95 PUSH2 0x83E JUMP JUMPDEST JUMPDEST DUP3 DUP3 SDIV DUP5 EQ DUP4 ISZERO OR PUSH2 0xBAB JUMPI PUSH2 0xBAA PUSH2 0x83E JUMP JUMPDEST JUMPDEST POP SWAP3 SWAP2 POP POP JUMP INVALID LOG2 PUSH5 0x6970667358 0x22 SLT KECCAK256 0xD5 0xD0 0x22 CODESIZE SWAP13 CHAINID PUSH7 0xCCEE94FA19138 0x26 KECCAK256 0xEE PUSH14 0x746D93B0190A19B72814B49CD69A PUSH5 0x736F6C6343 STOP ADDMOD BYTE STOP CALLER "
				},
				"gasEstimates": {
					"creation": {
						"codeDepositCost": "609600",
						"executionCost": "infinite",
						"totalCost": "infinite"
					},
					"external": {
						"": "infinite",
						"MINIMUM_USD()": "347",
						"addressAndAmountofFunders(address)": "2801",
						"fund()": "infinite",
						"funderslist(uint256)": "5032",
						"i_owner()": "infinite",
						"withdraw()": "infinite"
					}
				},
				"methodIdentifiers": {
					"MINIMUM_USD()": "6b69a592",
					"addressAndAmountofFunders(address)": "4e35fbd8",
					"fund()": "b60d4288",
					"funderslist(uint256)": "e873fee4",
					"i_owner()": "dba6335f",
					"withdraw()": "3ccfd60b"
				}
			},
			"storageLayout": {
				"storage": [
					{
						"astId": 115,
						"contract": "fundme/fundme.sol:FundMe",
						"label": "addressAndAmountofFunders",
						"offset": 0,
						"slot": "0",
						"type": "t_mapping(t_address,t_uint256)"
					},
					{
						"astId": 118,
						"contract": "fundme/fundme.sol:FundMe",
						"label": "funderslist",
						"offset": 0,
						"slot": "1",
						"type": "t_array(t_address)dyn_storage"
					}
				],
				"types": {
					"t_address": {
						"encoding": "inplace",
						"label": "address",
						"numberOfBytes": "20"
					},
					"t_array(t_address)dyn_storage": {
						"base": "t_address",
						"encoding": "dynamic_array",
						"label": "address[]",
						"numberOfBytes": "32"
					},
					"t_mapping(t_address,t_uint256)": {
						"encoding": "mapping",
						"key": "t_address",
						"label": "mapping(address => uint256)",
						"numberOfBytes": "32",
						"value": "t_uint256"
					},
					"t_uint256": {
						"encoding": "inplace",
						"label": "uint256",
						"numberOfBytes": "32"
					}
				}
			},
			"userdoc": {
				"kind": "user",
				"methods": {},
				"version": 1
			}
		}
	}
}